{
  "abi": [
    {
      "inputs": [
        {
          "internalType": "string",
          "name": "_name",
          "type": "string"
        },
        {
          "internalType": "string",
          "name": "_symbol",
          "type": "string"
        }
      ],
      "stateMutability": "nonpayable",
      "type": "constructor"
    },
    {
      "anonymous": false,
      "inputs": [
        {
          "indexed": true,
          "internalType": "address",
          "name": "_owner",
          "type": "address"
        },
        {
          "indexed": true,
          "internalType": "address",
          "name": "_operator",
          "type": "address"
        },
        {
          "indexed": false,
          "internalType": "bool",
          "name": "_approved",
          "type": "bool"
        }
      ],
      "name": "ApprovalForAll",
      "type": "event"
    },
    {
      "anonymous": false,
      "inputs": [
        {
          "indexed": true,
          "internalType": "address",
          "name": "_operator",
          "type": "address"
        },
        {
          "indexed": true,
          "internalType": "address",
          "name": "_from",
          "type": "address"
        },
        {
          "indexed": true,
          "internalType": "address",
          "name": "_to",
          "type": "address"
        },
        {
          "indexed": false,
          "internalType": "uint256[]",
          "name": "_ids",
          "type": "uint256[]"
        },
        {
          "indexed": false,
          "internalType": "uint256[]",
          "name": "_values",
          "type": "uint256[]"
        }
      ],
      "name": "TransferBatch",
      "type": "event"
    },
    {
      "anonymous": false,
      "inputs": [
        {
          "indexed": true,
          "internalType": "address",
          "name": "_operator",
          "type": "address"
        },
        {
          "indexed": true,
          "internalType": "address",
          "name": "_from",
          "type": "address"
        },
        {
          "indexed": true,
          "internalType": "address",
          "name": "_to",
          "type": "address"
        },
        {
          "indexed": false,
          "internalType": "uint256",
          "name": "_id",
          "type": "uint256"
        },
        {
          "indexed": false,
          "internalType": "uint256",
          "name": "_value",
          "type": "uint256"
        }
      ],
      "name": "TransferSingle",
      "type": "event"
    },
    {
      "anonymous": false,
      "inputs": [
        {
          "indexed": false,
          "internalType": "string",
          "name": "_value",
          "type": "string"
        },
        {
          "indexed": true,
          "internalType": "uint256",
          "name": "_id",
          "type": "uint256"
        }
      ],
      "name": "URI",
      "type": "event"
    },
    {
      "inputs": [
        {
          "internalType": "address",
          "name": "",
          "type": "address"
        },
        {
          "internalType": "uint256",
          "name": "",
          "type": "uint256"
        }
      ],
      "name": "balanceOf",
      "outputs": [
        {
          "internalType": "uint256",
          "name": "",
          "type": "uint256"
        }
      ],
      "stateMutability": "view",
      "type": "function"
    },
    {
      "inputs": [
        {
          "internalType": "address[]",
          "name": "accounts",
          "type": "address[]"
        },
        {
          "internalType": "uint256[]",
          "name": "ids",
          "type": "uint256[]"
        }
      ],
      "name": "balanceOfBatch",
      "outputs": [
        {
          "internalType": "uint256[]",
          "name": "",
          "type": "uint256[]"
        }
      ],
      "stateMutability": "view",
      "type": "function"
    },
    {
      "inputs": [
        {
          "internalType": "address",
          "name": "",
          "type": "address"
        },
        {
          "internalType": "address",
          "name": "",
          "type": "address"
        }
      ],
      "name": "isApprovedForAll",
      "outputs": [
        {
          "internalType": "bool",
          "name": "",
          "type": "bool"
        }
      ],
      "stateMutability": "view",
      "type": "function"
    },
    {
      "inputs": [],
      "name": "name",
      "outputs": [
        {
          "internalType": "string",
          "name": "",
          "type": "string"
        }
      ],
      "stateMutability": "view",
      "type": "function"
    },
    {
      "inputs": [
        {
          "internalType": "address",
          "name": "from",
          "type": "address"
        },
        {
          "internalType": "address",
          "name": "to",
          "type": "address"
        },
        {
          "internalType": "uint256[]",
          "name": "ids",
          "type": "uint256[]"
        },
        {
          "internalType": "uint256[]",
          "name": "amounts",
          "type": "uint256[]"
        },
        {
          "internalType": "bytes",
          "name": "data",
          "type": "bytes"
        }
      ],
      "name": "safeBatchTransferFrom",
      "outputs": [],
      "stateMutability": "nonpayable",
      "type": "function"
    },
    {
      "inputs": [
        {
          "internalType": "address",
          "name": "from",
          "type": "address"
        },
        {
          "internalType": "address",
          "name": "to",
          "type": "address"
        },
        {
          "internalType": "uint256",
          "name": "id",
          "type": "uint256"
        },
        {
          "internalType": "uint256",
          "name": "amount",
          "type": "uint256"
        },
        {
          "internalType": "bytes",
          "name": "data",
          "type": "bytes"
        }
      ],
      "name": "safeTransferFrom",
      "outputs": [],
      "stateMutability": "nonpayable",
      "type": "function"
    },
    {
      "inputs": [
        {
          "internalType": "address",
          "name": "operator",
          "type": "address"
        },
        {
          "internalType": "bool",
          "name": "approved",
          "type": "bool"
        }
      ],
      "name": "setApprovalForAll",
      "outputs": [],
      "stateMutability": "nonpayable",
      "type": "function"
    },
    {
      "inputs": [
        {
          "internalType": "bytes4",
          "name": "interfaceId",
          "type": "bytes4"
        }
      ],
      "name": "supportsInterface",
      "outputs": [
        {
          "internalType": "bool",
          "name": "",
          "type": "bool"
        }
      ],
      "stateMutability": "view",
      "type": "function"
    },
    {
      "inputs": [],
      "name": "symbol",
      "outputs": [
        {
          "internalType": "string",
          "name": "",
          "type": "string"
        }
      ],
      "stateMutability": "view",
      "type": "function"
    },
    {
      "inputs": [
        {
          "internalType": "uint256",
          "name": "tokenId",
          "type": "uint256"
        }
      ],
      "name": "uri",
      "outputs": [
        {
          "internalType": "string",
          "name": "",
          "type": "string"
        }
      ],
      "stateMutability": "view",
      "type": "function"
    }
  ],
  "bytecode": {
    "object": "0x60806040523480156200001157600080fd5b50604051620016833803806200168383398101604081905262000034916200011f565b600062000042838262000218565b50600162000051828262000218565b505050620002e4565b634e487b7160e01b600052604160045260246000fd5b600082601f8301126200008257600080fd5b81516001600160401b03808211156200009f576200009f6200005a565b604051601f8301601f19908116603f01168101908282118183101715620000ca57620000ca6200005a565b81604052838152602092508683858801011115620000e757600080fd5b600091505b838210156200010b5785820183015181830184015290820190620000ec565b600093810190920192909252949350505050565b600080604083850312156200013357600080fd5b82516001600160401b03808211156200014b57600080fd5b620001598683870162000070565b935060208501519150808211156200017057600080fd5b506200017f8582860162000070565b9150509250929050565b600181811c908216806200019e57607f821691505b602082108103620001bf57634e487b7160e01b600052602260045260246000fd5b50919050565b601f8211156200021357600081815260208120601f850160051c81016020861015620001ee5750805b601f850160051c820191505b818110156200020f57828155600101620001fa565b5050505b505050565b81516001600160401b038111156200023457620002346200005a565b6200024c8162000245845462000189565b84620001c5565b602080601f8311600181146200028457600084156200026b5750858301515b600019600386901b1c1916600185901b1785556200020f565b600085815260208120601f198616915b82811015620002b55788860151825594840194600190910190840162000294565b5085821015620002d45787850151600019600388901b60f8161c191681555b5050505050600190811b01905550565b61138f80620002f46000396000f3fe608060405234801561001057600080fd5b506004361061009d5760003560e01c80634e1273f4116100665780634e1273f41461014057806395d89b4114610160578063a22cb46514610168578063e985e9c51461017b578063f242432a146101a957600080fd5b8062fdd58e146100a257806301ffc9a7146100e057806306fdde03146101035780630e89341c146101185780632eb2c2d61461012b575b600080fd5b6100cd6100b0366004610c77565b600260209081526000928352604080842090915290825290205481565b6040519081526020015b60405180910390f35b6100f36100ee366004610cba565b6101bc565b60405190151581526020016100d7565b61010b61020e565b6040516100d79190610d24565b61010b610126366004610d37565b61029c565b61013e610139366004610e9c565b61033e565b005b61015361014e366004610f46565b6103d2565b6040516100d7919061104c565b61010b610509565b61013e61017636600461105f565b610516565b6100f361018936600461109b565b600360209081526000928352604080842090915290825290205460ff1681565b61013e6101b73660046110ce565b6105cd565b60006301ffc9a760e01b6001600160e01b0319831614806101ed5750636cdb3d1360e11b6001600160e01b03198316145b8061020857506303a24d0760e21b6001600160e01b03198316145b92915050565b6000805461021b90611133565b80601f016020809104026020016040519081016040528092919081815260200182805461024790611133565b80156102945780601f1061026957610100808354040283529160200191610294565b820191906000526020600020905b81548152906001019060200180831161027757829003601f168201915b505050505081565b60008181526004602052604090208054606091906102b990611133565b80601f01602080910402602001604051908101604052809291908181526020018280546102e590611133565b80156103325780601f1061030757610100808354040283529160200191610332565b820191906000526020600020905b81548152906001019060200180831161031557829003601f168201915b50505050509050919050565b6001600160a01b03851633148061037857506001600160a01b038516600090815260036020908152604080832033845290915290205460ff165b6103be5760405162461bcd60e51b81526020600482015260126024820152710853d5d3915497d3d497d054141493d5915160721b60448201526064015b60405180910390fd5b6103cb8585858585610655565b5050505050565b606081518351146104175760405162461bcd60e51b815260206004820152600f60248201526e0988a9c8ea890be9a92a69a82a8869608b1b60448201526064016103b5565b6000835167ffffffffffffffff81111561043357610433610d50565b60405190808252806020026020018201604052801561045c578160200160208202803683370190505b50905060005b845181101561050157600260008683815181106104815761048161116d565b60200260200101516001600160a01b03166001600160a01b0316815260200190815260200160002060008583815181106104bd576104bd61116d565b60200260200101518152602001908152602001600020548282815181106104e6576104e661116d565b60209081029190910101526104fa81611199565b9050610462565b509392505050565b6001805461021b90611133565b336001600160a01b03831681036105605760405162461bcd60e51b815260206004820152600e60248201526d20a8282927ab24a723afa9a2a62360911b60448201526064016103b5565b6001600160a01b03818116600081815260036020908152604080832094881680845294825291829020805460ff191687151590811790915591519182527f17307eab39ab6107e8899845ad3d59bd9653f200f220920489ca2b5937696c31910160405180910390a3505050565b6001600160a01b03851633148061060757506001600160a01b038516600090815260036020908152604080832033845290915290205460ff165b6106485760405162461bcd60e51b81526020600482015260126024820152710853d5d3915497d3d497d054141493d5915160721b60448201526064016103b5565b6103cb8585858585610866565b81518351146106985760405162461bcd60e51b815260206004820152600f60248201526e0988a9c8ea890be9a92a69a82a8869608b1b60448201526064016103b5565b6001600160a01b0384166106dd5760405162461bcd60e51b815260206004820152600c60248201526b2a27afad22a927afa0a2222960a11b60448201526064016103b5565b3360005b84518110156107f85760008582815181106106fe576106fe61116d565b60200260200101519050600085838151811061071c5761071c61116d565b6020908102919091018101516001600160a01b038b1660009081526002835260408082208683529093529190912054909150818110156107915760405162461bcd60e51b815260206004820152601060248201526f125394d551919250d251539517d0905360821b60448201526064016103b5565b6001600160a01b03808b16600090815260026020818152604080842088855282528084208787039055938d168352908152828220868352905290812080548492906107dd9084906111b2565b92505081905550505050806107f190611199565b90506106e1565b50846001600160a01b0316866001600160a01b0316826001600160a01b03167f4a39dc06d4c0dbc64b70af90fd698a233a518aa5d07e595d983b8c0526c8f7fb87876040516108489291906111c5565b60405180910390a461085e8187878787876109e0565b505050505050565b6001600160a01b0384166108ab5760405162461bcd60e51b815260206004820152600c60248201526b2a27afad22a927afa0a2222960a11b60448201526064016103b5565b336108c48187876108bb88610b33565b6103cb88610b33565b6001600160a01b03861660009081526002602090815260408083208784529091529020548381101561092b5760405162461bcd60e51b815260206004820152601060248201526f125394d551919250d251539517d0905360821b60448201526064016103b5565b6001600160a01b0380881660009081526002602081815260408084208a855282528084208987039055938a168352908152828220888352905290812080548692906109779084906111b2565b909155505060408051868152602081018690526001600160a01b03808916928a821692918616917fc3d58168c5ae7397731d063d5bbf3d657854427343f4c083240f7aacaa2d0f62910160405180910390a46109d7828888888888610b7e565b50505050505050565b6001600160a01b0384163b1561085e5760405163bc197c8160e01b81526001600160a01b0385169063bc197c8190610a2490899089908890889088906004016111f3565b6020604051808303816000875af1925050508015610a5f575060408051601f3d908101601f19168201909252610a5c91810190611251565b60015b610ae157610a6b61126e565b806308c379a003610aa45750610a7f61128a565b80610a8a5750610aa6565b8060405162461bcd60e51b81526004016103b59190610d24565b505b60405162461bcd60e51b815260206004820152601060248201526f10a2a92198989a9aa922a1a2a4ab22a960811b60448201526064016103b5565b6001600160e01b0319811663bc197c8160e01b146109d75760405162461bcd60e51b815260206004820152600f60248201526e1513d2d15394d7d491529150d51151608a1b60448201526064016103b5565b60408051600180825281830190925260609160009190602080830190803683370190505090508281600081518110610b6d57610b6d61116d565b602090810291909101015292915050565b6001600160a01b0384163b1561085e5760405163f23a6e6160e01b81526001600160a01b0385169063f23a6e6190610bc29089908990889088908890600401611314565b6020604051808303816000875af1925050508015610bfd575060408051601f3d908101601f19168201909252610bfa91810190611251565b60015b610c0957610a6b61126e565b6001600160e01b0319811663f23a6e6160e01b146109d75760405162461bcd60e51b815260206004820152600f60248201526e1513d2d15394d7d491529150d51151608a1b60448201526064016103b5565b80356001600160a01b0381168114610c7257600080fd5b919050565b60008060408385031215610c8a57600080fd5b610c9383610c5b565b946020939093013593505050565b6001600160e01b031981168114610cb757600080fd5b50565b600060208284031215610ccc57600080fd5b8135610cd781610ca1565b9392505050565b6000815180845260005b81811015610d0457602081850181015186830182015201610ce8565b506000602082860101526020601f19601f83011685010191505092915050565b602081526000610cd76020830184610cde565b600060208284031215610d4957600080fd5b5035919050565b634e487b7160e01b600052604160045260246000fd5b601f8201601f1916810167ffffffffffffffff81118282101715610d8c57610d8c610d50565b6040525050565b600067ffffffffffffffff821115610dad57610dad610d50565b5060051b60200190565b600082601f830112610dc857600080fd5b81356020610dd582610d93565b604051610de28282610d66565b83815260059390931b8501820192828101915086841115610e0257600080fd5b8286015b84811015610e1d5780358352918301918301610e06565b509695505050505050565b600082601f830112610e3957600080fd5b813567ffffffffffffffff811115610e5357610e53610d50565b604051610e6a601f8301601f191660200182610d66565b818152846020838601011115610e7f57600080fd5b816020850160208301376000918101602001919091529392505050565b600080600080600060a08688031215610eb457600080fd5b610ebd86610c5b565b9450610ecb60208701610c5b565b9350604086013567ffffffffffffffff80821115610ee857600080fd5b610ef489838a01610db7565b94506060880135915080821115610f0a57600080fd5b610f1689838a01610db7565b93506080880135915080821115610f2c57600080fd5b50610f3988828901610e28565b9150509295509295909350565b60008060408385031215610f5957600080fd5b823567ffffffffffffffff80821115610f7157600080fd5b818501915085601f830112610f8557600080fd5b81356020610f9282610d93565b604051610f9f8282610d66565b83815260059390931b8501820192828101915089841115610fbf57600080fd5b948201945b83861015610fe457610fd586610c5b565b82529482019490820190610fc4565b96505086013592505080821115610ffa57600080fd5b5061100785828601610db7565b9150509250929050565b600081518084526020808501945080840160005b8381101561104157815187529582019590820190600101611025565b509495945050505050565b602081526000610cd76020830184611011565b6000806040838503121561107257600080fd5b61107b83610c5b565b91506020830135801515811461109057600080fd5b809150509250929050565b600080604083850312156110ae57600080fd5b6110b783610c5b565b91506110c560208401610c5b565b90509250929050565b600080600080600060a086880312156110e657600080fd5b6110ef86610c5b565b94506110fd60208701610c5b565b93506040860135925060608601359150608086013567ffffffffffffffff81111561112757600080fd5b610f3988828901610e28565b600181811c9082168061114757607f821691505b60208210810361116757634e487b7160e01b600052602260045260246000fd5b50919050565b634e487b7160e01b600052603260045260246000fd5b634e487b7160e01b600052601160045260246000fd5b6000600182016111ab576111ab611183565b5060010190565b8082018082111561020857610208611183565b6040815260006111d86040830185611011565b82810360208401526111ea8185611011565b95945050505050565b6001600160a01b0386811682528516602082015260a06040820181905260009061121f90830186611011565b82810360608401526112318186611011565b905082810360808401526112458185610cde565b98975050505050505050565b60006020828403121561126357600080fd5b8151610cd781610ca1565b600060033d11156112875760046000803e5060005160e01c5b90565b600060443d10156112985790565b6040516003193d81016004833e81513d67ffffffffffffffff81602484011181841117156112c857505050505090565b82850191508151818111156112e05750505050505090565b843d87010160208285010111156112fa5750505050505090565b61130960208286010187610d66565b509095945050505050565b6001600160a01b03868116825285166020820152604081018490526060810183905260a06080820181905260009061134e90830184610cde565b97965050505050505056fea26469706673582212209cc9a996b662c670873223377fb53d7727b1e2a753f0b30e5666e8ff503a960064736f6c63430008130033",
    "linkReferences": {}
  },
  "methodIdentifiers": {
    "balanceOf(address,uint256)": "00fdd58e",
    "balanceOfBatch(address[],uint256[])": "4e1273f4",
    "isApprovedForAll(address,address)": "e985e9c5",
    "name()": "06fdde03",
    "safeBatchTransferFrom(address,address,uint256[],uint256[],bytes)": "2eb2c2d6",
    "safeTransferFrom(address,address,uint256,uint256,bytes)": "f242432a",
    "setApprovalForAll(address,bool)": "a22cb465",
    "supportsInterface(bytes4)": "01ffc9a7",
    "symbol()": "95d89b41",
    "uri(uint256)": "0e89341c"
  },
  "id": 18
}