{
  "abi": [
    {
      "inputs": [
        {
          "internalType": "string",
          "name": "_name",
          "type": "string"
        },
        {
          "internalType": "string",
          "name": "_symbol",
          "type": "string"
        },
        {
          "internalType": "address",
          "name": "_royaltyRecipient",
          "type": "address"
        },
        {
          "internalType": "uint128",
          "name": "_royaltyBps",
          "type": "uint128"
        }
      ],
      "stateMutability": "nonpayable",
      "type": "constructor"
    },
    {
      "inputs": [
        {
          "internalType": "address",
          "name": "operator",
          "type": "address"
        }
      ],
      "name": "OperatorNotAllowed",
      "type": "error"
    },
    {
      "anonymous": false,
      "inputs": [
        {
          "indexed": true,
          "internalType": "address",
          "name": "_owner",
          "type": "address"
        },
        {
          "indexed": true,
          "internalType": "address",
          "name": "_operator",
          "type": "address"
        },
        {
          "indexed": false,
          "internalType": "bool",
          "name": "_approved",
          "type": "bool"
        }
      ],
      "name": "ApprovalForAll",
      "type": "event"
    },
    {
      "anonymous": false,
      "inputs": [
        {
          "indexed": false,
          "internalType": "string",
          "name": "prevURI",
          "type": "string"
        },
        {
          "indexed": false,
          "internalType": "string",
          "name": "newURI",
          "type": "string"
        }
      ],
      "name": "ContractURIUpdated",
      "type": "event"
    },
    {
      "anonymous": false,
      "inputs": [
        {
          "indexed": true,
          "internalType": "address",
          "name": "newRoyaltyRecipient",
          "type": "address"
        },
        {
          "indexed": false,
          "internalType": "uint256",
          "name": "newRoyaltyBps",
          "type": "uint256"
        }
      ],
      "name": "DefaultRoyalty",
      "type": "event"
    },
    {
      "anonymous": false,
      "inputs": [
        {
          "indexed": false,
          "internalType": "bool",
          "name": "restriction",
          "type": "bool"
        }
      ],
      "name": "OperatorRestriction",
      "type": "event"
    },
    {
      "anonymous": false,
      "inputs": [
        {
          "indexed": true,
          "internalType": "address",
          "name": "prevOwner",
          "type": "address"
        },
        {
          "indexed": true,
          "internalType": "address",
          "name": "newOwner",
          "type": "address"
        }
      ],
      "name": "OwnerUpdated",
      "type": "event"
    },
    {
      "anonymous": false,
      "inputs": [
        {
          "indexed": true,
          "internalType": "uint256",
          "name": "tokenId",
          "type": "uint256"
        },
        {
          "indexed": true,
          "internalType": "address",
          "name": "royaltyRecipient",
          "type": "address"
        },
        {
          "indexed": false,
          "internalType": "uint256",
          "name": "royaltyBps",
          "type": "uint256"
        }
      ],
      "name": "RoyaltyForToken",
      "type": "event"
    },
    {
      "anonymous": false,
      "inputs": [
        {
          "indexed": true,
          "internalType": "address",
          "name": "claimer",
          "type": "address"
        },
        {
          "indexed": true,
          "internalType": "address",
          "name": "receiver",
          "type": "address"
        },
        {
          "indexed": true,
          "internalType": "uint256",
          "name": "tokenId",
          "type": "uint256"
        },
        {
          "indexed": false,
          "internalType": "uint256",
          "name": "quantityClaimed",
          "type": "uint256"
        }
      ],
      "name": "TokensClaimed",
      "type": "event"
    },
    {
      "anonymous": false,
      "inputs": [
        {
          "indexed": true,
          "internalType": "uint256",
          "name": "startTokenId",
          "type": "uint256"
        },
        {
          "indexed": false,
          "internalType": "uint256",
          "name": "endTokenId",
          "type": "uint256"
        },
        {
          "indexed": false,
          "internalType": "string",
          "name": "baseURI",
          "type": "string"
        },
        {
          "indexed": false,
          "internalType": "bytes",
          "name": "encryptedBaseURI",
          "type": "bytes"
        }
      ],
      "name": "TokensLazyMinted",
      "type": "event"
    },
    {
      "anonymous": false,
      "inputs": [
        {
          "indexed": true,
          "internalType": "address",
          "name": "_operator",
          "type": "address"
        },
        {
          "indexed": true,
          "internalType": "address",
          "name": "_from",
          "type": "address"
        },
        {
          "indexed": true,
          "internalType": "address",
          "name": "_to",
          "type": "address"
        },
        {
          "indexed": false,
          "internalType": "uint256[]",
          "name": "_ids",
          "type": "uint256[]"
        },
        {
          "indexed": false,
          "internalType": "uint256[]",
          "name": "_values",
          "type": "uint256[]"
        }
      ],
      "name": "TransferBatch",
      "type": "event"
    },
    {
      "anonymous": false,
      "inputs": [
        {
          "indexed": true,
          "internalType": "address",
          "name": "_operator",
          "type": "address"
        },
        {
          "indexed": true,
          "internalType": "address",
          "name": "_from",
          "type": "address"
        },
        {
          "indexed": true,
          "internalType": "address",
          "name": "_to",
          "type": "address"
        },
        {
          "indexed": false,
          "internalType": "uint256",
          "name": "_id",
          "type": "uint256"
        },
        {
          "indexed": false,
          "internalType": "uint256",
          "name": "_value",
          "type": "uint256"
        }
      ],
      "name": "TransferSingle",
      "type": "event"
    },
    {
      "anonymous": false,
      "inputs": [
        {
          "indexed": false,
          "internalType": "string",
          "name": "_value",
          "type": "string"
        },
        {
          "indexed": true,
          "internalType": "uint256",
          "name": "_id",
          "type": "uint256"
        }
      ],
      "name": "URI",
      "type": "event"
    },
    {
      "inputs": [],
      "name": "OPERATOR_FILTER_REGISTRY",
      "outputs": [
        {
          "internalType": "contract IOperatorFilterRegistry",
          "name": "",
          "type": "address"
        }
      ],
      "stateMutability": "view",
      "type": "function"
    },
    {
      "inputs": [
        {
          "internalType": "address",
          "name": "",
          "type": "address"
        },
        {
          "internalType": "uint256",
          "name": "",
          "type": "uint256"
        }
      ],
      "name": "balanceOf",
      "outputs": [
        {
          "internalType": "uint256",
          "name": "",
          "type": "uint256"
        }
      ],
      "stateMutability": "view",
      "type": "function"
    },
    {
      "inputs": [
        {
          "internalType": "address[]",
          "name": "accounts",
          "type": "address[]"
        },
        {
          "internalType": "uint256[]",
          "name": "ids",
          "type": "uint256[]"
        }
      ],
      "name": "balanceOfBatch",
      "outputs": [
        {
          "internalType": "uint256[]",
          "name": "",
          "type": "uint256[]"
        }
      ],
      "stateMutability": "view",
      "type": "function"
    },
    {
      "inputs": [
        {
          "internalType": "address",
          "name": "_owner",
          "type": "address"
        },
        {
          "internalType": "uint256",
          "name": "_tokenId",
          "type": "uint256"
        },
        {
          "internalType": "uint256",
          "name": "_amount",
          "type": "uint256"
        }
      ],
      "name": "burn",
      "outputs": [],
      "stateMutability": "nonpayable",
      "type": "function"
    },
    {
      "inputs": [
        {
          "internalType": "address",
          "name": "_owner",
          "type": "address"
        },
        {
          "internalType": "uint256[]",
          "name": "_tokenIds",
          "type": "uint256[]"
        },
        {
          "internalType": "uint256[]",
          "name": "_amounts",
          "type": "uint256[]"
        }
      ],
      "name": "burnBatch",
      "outputs": [],
      "stateMutability": "nonpayable",
      "type": "function"
    },
    {
      "inputs": [
        {
          "internalType": "address",
          "name": "_receiver",
          "type": "address"
        },
        {
          "internalType": "uint256",
          "name": "_tokenId",
          "type": "uint256"
        },
        {
          "internalType": "uint256",
          "name": "_quantity",
          "type": "uint256"
        }
      ],
      "name": "claim",
      "outputs": [],
      "stateMutability": "payable",
      "type": "function"
    },
    {
      "inputs": [],
      "name": "contractURI",
      "outputs": [
        {
          "internalType": "string",
          "name": "",
          "type": "string"
        }
      ],
      "stateMutability": "view",
      "type": "function"
    },
    {
      "inputs": [],
      "name": "getBaseURICount",
      "outputs": [
        {
          "internalType": "uint256",
          "name": "",
          "type": "uint256"
        }
      ],
      "stateMutability": "view",
      "type": "function"
    },
    {
      "inputs": [
        {
          "internalType": "uint256",
          "name": "_index",
          "type": "uint256"
        }
      ],
      "name": "getBatchIdAtIndex",
      "outputs": [
        {
          "internalType": "uint256",
          "name": "",
          "type": "uint256"
        }
      ],
      "stateMutability": "view",
      "type": "function"
    },
    {
      "inputs": [],
      "name": "getDefaultRoyaltyInfo",
      "outputs": [
        {
          "internalType": "address",
          "name": "",
          "type": "address"
        },
        {
          "internalType": "uint16",
          "name": "",
          "type": "uint16"
        }
      ],
      "stateMutability": "view",
      "type": "function"
    },
    {
      "inputs": [
        {
          "internalType": "uint256",
          "name": "_tokenId",
          "type": "uint256"
        }
      ],
      "name": "getRoyaltyInfoForToken",
      "outputs": [
        {
          "internalType": "address",
          "name": "",
          "type": "address"
        },
        {
          "internalType": "uint16",
          "name": "",
          "type": "uint16"
        }
      ],
      "stateMutability": "view",
      "type": "function"
    },
    {
      "inputs": [
        {
          "internalType": "address",
          "name": "",
          "type": "address"
        },
        {
          "internalType": "address",
          "name": "",
          "type": "address"
        }
      ],
      "name": "isApprovedForAll",
      "outputs": [
        {
          "internalType": "bool",
          "name": "",
          "type": "bool"
        }
      ],
      "stateMutability": "view",
      "type": "function"
    },
    {
      "inputs": [
        {
          "internalType": "uint256",
          "name": "_amount",
          "type": "uint256"
        },
        {
          "internalType": "string",
          "name": "_baseURIForTokens",
          "type": "string"
        },
        {
          "internalType": "bytes",
          "name": "_data",
          "type": "bytes"
        }
      ],
      "name": "lazyMint",
      "outputs": [
        {
          "internalType": "uint256",
          "name": "batchId",
          "type": "uint256"
        }
      ],
      "stateMutability": "nonpayable",
      "type": "function"
    },
    {
      "inputs": [
        {
          "internalType": "bytes[]",
          "name": "data",
          "type": "bytes[]"
        }
      ],
      "name": "multicall",
      "outputs": [
        {
          "internalType": "bytes[]",
          "name": "results",
          "type": "bytes[]"
        }
      ],
      "stateMutability": "nonpayable",
      "type": "function"
    },
    {
      "inputs": [],
      "name": "name",
      "outputs": [
        {
          "internalType": "string",
          "name": "",
          "type": "string"
        }
      ],
      "stateMutability": "view",
      "type": "function"
    },
    {
      "inputs": [],
      "name": "nextTokenIdToMint",
      "outputs": [
        {
          "internalType": "uint256",
          "name": "",
          "type": "uint256"
        }
      ],
      "stateMutability": "view",
      "type": "function"
    },
    {
      "inputs": [],
      "name": "operatorRestriction",
      "outputs": [
        {
          "internalType": "bool",
          "name": "",
          "type": "bool"
        }
      ],
      "stateMutability": "view",
      "type": "function"
    },
    {
      "inputs": [],
      "name": "owner",
      "outputs": [
        {
          "internalType": "address",
          "name": "",
          "type": "address"
        }
      ],
      "stateMutability": "view",
      "type": "function"
    },
    {
      "inputs": [
        {
          "internalType": "uint256",
          "name": "tokenId",
          "type": "uint256"
        },
        {
          "internalType": "uint256",
          "name": "salePrice",
          "type": "uint256"
        }
      ],
      "name": "royaltyInfo",
      "outputs": [
        {
          "internalType": "address",
          "name": "receiver",
          "type": "address"
        },
        {
          "internalType": "uint256",
          "name": "royaltyAmount",
          "type": "uint256"
        }
      ],
      "stateMutability": "view",
      "type": "function"
    },
    {
      "inputs": [
        {
          "internalType": "address",
          "name": "from",
          "type": "address"
        },
        {
          "internalType": "address",
          "name": "to",
          "type": "address"
        },
        {
          "internalType": "uint256[]",
          "name": "ids",
          "type": "uint256[]"
        },
        {
          "internalType": "uint256[]",
          "name": "amounts",
          "type": "uint256[]"
        },
        {
          "internalType": "bytes",
          "name": "data",
          "type": "bytes"
        }
      ],
      "name": "safeBatchTransferFrom",
      "outputs": [],
      "stateMutability": "nonpayable",
      "type": "function"
    },
    {
      "inputs": [
        {
          "internalType": "address",
          "name": "from",
          "type": "address"
        },
        {
          "internalType": "address",
          "name": "to",
          "type": "address"
        },
        {
          "internalType": "uint256",
          "name": "id",
          "type": "uint256"
        },
        {
          "internalType": "uint256",
          "name": "amount",
          "type": "uint256"
        },
        {
          "internalType": "bytes",
          "name": "data",
          "type": "bytes"
        }
      ],
      "name": "safeTransferFrom",
      "outputs": [],
      "stateMutability": "nonpayable",
      "type": "function"
    },
    {
      "inputs": [
        {
          "internalType": "address",
          "name": "operator",
          "type": "address"
        },
        {
          "internalType": "bool",
          "name": "approved",
          "type": "bool"
        }
      ],
      "name": "setApprovalForAll",
      "outputs": [],
      "stateMutability": "nonpayable",
      "type": "function"
    },
    {
      "inputs": [
        {
          "internalType": "string",
          "name": "_uri",
          "type": "string"
        }
      ],
      "name": "setContractURI",
      "outputs": [],
      "stateMutability": "nonpayable",
      "type": "function"
    },
    {
      "inputs": [
        {
          "internalType": "address",
          "name": "_royaltyRecipient",
          "type": "address"
        },
        {
          "internalType": "uint256",
          "name": "_royaltyBps",
          "type": "uint256"
        }
      ],
      "name": "setDefaultRoyaltyInfo",
      "outputs": [],
      "stateMutability": "nonpayable",
      "type": "function"
    },
    {
      "inputs": [
        {
          "internalType": "bool",
          "name": "_restriction",
          "type": "bool"
        }
      ],
      "name": "setOperatorRestriction",
      "outputs": [],
      "stateMutability": "nonpayable",
      "type": "function"
    },
    {
      "inputs": [
        {
          "internalType": "address",
          "name": "_newOwner",
          "type": "address"
        }
      ],
      "name": "setOwner",
      "outputs": [],
      "stateMutability": "nonpayable",
      "type": "function"
    },
    {
      "inputs": [
        {
          "internalType": "uint256",
          "name": "_tokenId",
          "type": "uint256"
        },
        {
          "internalType": "address",
          "name": "_recipient",
          "type": "address"
        },
        {
          "internalType": "uint256",
          "name": "_bps",
          "type": "uint256"
        }
      ],
      "name": "setRoyaltyInfoForToken",
      "outputs": [],
      "stateMutability": "nonpayable",
      "type": "function"
    },
    {
      "inputs": [
        {
          "internalType": "bytes4",
          "name": "interfaceId",
          "type": "bytes4"
        }
      ],
      "name": "supportsInterface",
      "outputs": [
        {
          "internalType": "bool",
          "name": "",
          "type": "bool"
        }
      ],
      "stateMutability": "view",
      "type": "function"
    },
    {
      "inputs": [],
      "name": "symbol",
      "outputs": [
        {
          "internalType": "string",
          "name": "",
          "type": "string"
        }
      ],
      "stateMutability": "view",
      "type": "function"
    },
    {
      "inputs": [
        {
          "internalType": "uint256",
          "name": "",
          "type": "uint256"
        }
      ],
      "name": "totalSupply",
      "outputs": [
        {
          "internalType": "uint256",
          "name": "",
          "type": "uint256"
        }
      ],
      "stateMutability": "view",
      "type": "function"
    },
    {
      "inputs": [
        {
          "internalType": "uint256",
          "name": "_tokenId",
          "type": "uint256"
        }
      ],
      "name": "uri",
      "outputs": [
        {
          "internalType": "string",
          "name": "",
          "type": "string"
        }
      ],
      "stateMutability": "view",
      "type": "function"
    },
    {
      "inputs": [
        {
          "internalType": "address",
          "name": "_claimer",
          "type": "address"
        },
        {
          "internalType": "uint256",
          "name": "_tokenId",
          "type": "uint256"
        },
        {
          "internalType": "uint256",
          "name": "_quantity",
          "type": "uint256"
        }
      ],
      "name": "verifyClaim",
      "outputs": [],
      "stateMutability": "view",
      "type": "function"
    }
  ],
  "bytecode": {
    "object": "0x60806040523480156200001157600080fd5b506040516200391d3803806200391d8339810160408190526200003491620003f8565b733cc6cdda760b79bafa08df41ecfa224f810dceb66001858560006200005b838262000533565b5060016200006a828262000533565b5050506daaeb6d7670e522a718067333cd4e3b15620001b25780156200010057604051633e9f1edf60e11b81523060048201526001600160a01b03831660248201526daaeb6d7670e522a718067333cd4e90637d3e3dbe906044015b600060405180830381600087803b158015620000e157600080fd5b505af1158015620000f6573d6000803e3d6000fd5b50505050620001b2565b6001600160a01b03821615620001515760405163a0af290360e01b81523060048201526001600160a01b03831660248201526daaeb6d7670e522a718067333cd4e9063a0af290390604401620000c6565b604051632210724360e11b81523060048201526daaeb6d7670e522a718067333cd4e90634420e48690602401600060405180830381600087803b1580156200019857600080fd5b505af1158015620001ad573d6000803e3d6000fd5b505050505b50506001600d55620001c433620001ef565b620001d9826001600160801b03831662000241565b620001e56001620002ec565b50505050620005ff565b600680546001600160a01b038381166001600160a01b0319831681179093556040519116919082907f8292fce18fa69edf4db7b94ea2e58241df0ae57f97e0a6c9b29067028bf92d7690600090a35050565b6127108111156200028a5760405162461bcd60e51b815260206004820152600f60248201526e45786365656473206d61782062707360881b604482015260640160405180910390fd5b600780546001600160a01b0384166001600160b01b03199091168117600160a01b61ffff851602179091556040518281527f90d7ec04bcb8978719414f82e52e4cb651db41d0e6f8cea6118c2191e6183adb9060200160405180910390a25050565b600c805460ff19168215159081179091556040519081527f38475885990d8dfe9ca01f0ef160a1b5514426eab9ddbc953a3353410ba780969060200160405180910390a150565b634e487b7160e01b600052604160045260246000fd5b600082601f8301126200035b57600080fd5b81516001600160401b038082111562000378576200037862000333565b604051601f8301601f19908116603f01168101908282118183101715620003a357620003a362000333565b81604052838152602092508683858801011115620003c057600080fd5b600091505b83821015620003e45785820183015181830184015290820190620003c5565b600093810190920192909252949350505050565b600080600080608085870312156200040f57600080fd5b84516001600160401b03808211156200042757600080fd5b620004358883890162000349565b955060208701519150808211156200044c57600080fd5b506200045b8782880162000349565b604087015190945090506001600160a01b03811681146200047b57600080fd5b60608601519092506001600160801b03811681146200049957600080fd5b939692955090935050565b600181811c90821680620004b957607f821691505b602082108103620004da57634e487b7160e01b600052602260045260246000fd5b50919050565b601f8211156200052e57600081815260208120601f850160051c81016020861015620005095750805b601f850160051c820191505b818110156200052a5782815560010162000515565b5050505b505050565b81516001600160401b038111156200054f576200054f62000333565b6200056781620005608454620004a4565b84620004e0565b602080601f8311600181146200059f5760008415620005865750858301515b600019600386901b1c1916600185901b1785556200052a565b600085815260208120601f198616915b82811015620005d057888601518255948401946001909101908401620005af565b5085821015620005ef5787850151600019600388901b60f8161c191681555b5050505050600190811b01905550565b61330e806200060f6000396000f3fe6080604052600436106101e25760003560e01c8063600dd5ea11610102578063ac9650d811610095578063e8a3d48511610064578063e8a3d485146105fd578063e985e9c514610612578063f242432a1461064d578063f5298aca1461066d57600080fd5b8063ac9650d814610558578063b24f2d3914610585578063bd85b039146105b0578063d37c353b146105dd57600080fd5b8063938e3d7b116100d1578063938e3d7b146104e357806395d89b41146105035780639bcf7a1514610518578063a22cb4651461053857600080fd5b8063600dd5ea1461047057806363b45e2d146104905780636b20c454146104a55780638da5cb5b146104c557600080fd5b80632eb2c2d61161017a5780634bbb1abf116101495780634bbb1abf146103c75780634cc157df146103e75780634e1273f414610429578063504c6e011461045657600080fd5b80632eb2c2d61461033857806332f0cd64146103585780633b1475a71461037857806341f434341461038d57600080fd5b806313af4035116101b657806313af4035146102a45780632419f51b146102c65780632a55205a146102e65780632bc43fd91461032557600080fd5b8062fdd58e146101e757806301ffc9a71461023257806306fdde03146102625780630e89341c14610284575b600080fd5b3480156101f357600080fd5b5061021f610202366004612578565b600260209081526000928352604080842090915290825290205481565b6040519081526020015b60405180910390f35b34801561023e57600080fd5b5061025261024d3660046125b8565b61068d565b6040519015158152602001610229565b34801561026e57600080fd5b506102776106fa565b6040516102299190612625565b34801561029057600080fd5b5061027761029f366004612638565b610788565b3480156102b057600080fd5b506102c46102bf366004612651565b6107c9565b005b3480156102d257600080fd5b5061021f6102e1366004612638565b610802565b3480156102f257600080fd5b5061030661030136600461266c565b610870565b604080516001600160a01b039093168352602083019190915201610229565b6102c461033336600461268e565b6108ad565b34801561034457600080fd5b506102c4610353366004612814565b6109a5565b34801561036457600080fd5b506102c46103733660046128cb565b6109d4565b34801561038457600080fd5b50600b5461021f565b34801561039957600080fd5b506103af6daaeb6d7670e522a718067333cd4e81565b6040516001600160a01b039091168152602001610229565b3480156103d357600080fd5b506102c46103e236600461268e565b505050565b3480156103f357600080fd5b50610407610402366004612638565b610a45565b604080516001600160a01b03909316835261ffff909116602083015201610229565b34801561043557600080fd5b506104496104443660046128e8565b610ab0565b60405161022991906129ed565b34801561046257600080fd5b50600c546102529060ff1681565b34801561047c57600080fd5b506102c461048b366004612578565b610bc4565b34801561049c57600080fd5b5060095461021f565b3480156104b157600080fd5b506102c46104c0366004612a00565b610bf6565b3480156104d157600080fd5b506006546001600160a01b03166103af565b3480156104ef57600080fd5b506102c46104fe366004612a73565b610d98565b34801561050f57600080fd5b50610277610dc5565b34801561052457600080fd5b506102c4610533366004612abb565b610dd2565b34801561054457600080fd5b506102c4610553366004612af0565b610e01565b34801561056457600080fd5b50610578610573366004612b27565b610e15565b6040516102299190612b9b565b34801561059157600080fd5b506007546001600160a01b03811690600160a01b900461ffff16610407565b3480156105bc57600080fd5b5061021f6105cb366004612638565b600e6020526000908152604090205481565b3480156105e957600080fd5b5061021f6105f8366004612c45565b610f09565b34801561060957600080fd5b50610277611016565b34801561061e57600080fd5b5061025261062d366004612cbe565b600360209081526000928352604080842090915290825290205460ff1681565b34801561065957600080fd5b506102c4610668366004612cf1565b611023565b34801561067957600080fd5b506102c461068836600461268e565b61104a565b60006301ffc9a760e01b6001600160e01b0319831614806106be5750636cdb3d1360e11b6001600160e01b03198316145b806106d957506303a24d0760e21b6001600160e01b03198316145b806106f457506001600160e01b0319821663152a902d60e11b145b92915050565b6000805461070790612d55565b80601f016020809104026020016040519081016040528092919081815260200182805461073390612d55565b80156107805780601f1061075557610100808354040283529160200191610780565b820191906000526020600020905b81548152906001019060200180831161076357829003601f168201915b505050505081565b606060006107958361113f565b9050806107a1846112db565b6040516020016107b2929190612d8f565b604051602081830303815290604052915050919050565b6107d16113e3565b6107f65760405162461bcd60e51b81526004016107ed90612dbe565b60405180910390fd5b6107ff81611410565b50565b600061080d60095490565b821061084b5760405162461bcd60e51b815260206004820152600d60248201526c092dcecc2d8d2c840d2dcc8caf609b1b60448201526064016107ed565b6009828154811061085e5761085e612de6565b90600052602060002001549050919050565b60008060008061087f86610a45565b90945084925061ffff1690506127106108988287612e12565b6108a29190612e3f565b925050509250929050565b6002600d54036108ff5760405162461bcd60e51b815260206004820152601f60248201527f5265656e7472616e637947756172643a207265656e7472616e742063616c6c0060448201526064016107ed565b6002600d55600b5482106109425760405162461bcd60e51b815260206004820152600a6024820152691a5b9d985b1a59081a5960b21b60448201526064016107ed565b61094d838383611462565b81836001600160a01b0316336001600160a01b03167fff097c7d8b1957a4ff09ef1361b5fb54dcede3941ba836d0beb9d10bec725de68460405161099391815260200190565b60405180910390a450506001600d5550565b846001600160a01b03811633146109bf576109bf3361147d565b6109cc8686868686611541565b505050505050565b6109dc6113e3565b610a3c5760405162461bcd60e51b815260206004820152602b60248201527f4e6f7420617574686f72697a656420746f20736574206f70657261746f72207260448201526a32b9ba3934b1ba34b7b71760a91b60648201526084016107ed565b6107ff816115d0565b6000818152600860209081526040808320815180830190925280546001600160a01b031680835260019091015492820192909252829115610a8c5780516020820151610aa6565b6007546001600160a01b03811690600160a01b900461ffff165b9250925050915091565b60608151835114610ad35760405162461bcd60e51b81526004016107ed90612e53565b600083516001600160401b03811115610aee57610aee6126c1565b604051908082528060200260200182016040528015610b17578160200160208202803683370190505b50905060005b8451811015610bbc5760026000868381518110610b3c57610b3c612de6565b60200260200101516001600160a01b03166001600160a01b031681526020019081526020016000206000858381518110610b7857610b78612de6565b6020026020010151815260200190815260200160002054828281518110610ba157610ba1612de6565b6020908102919091010152610bb581612e7c565b9050610b1d565b509392505050565b610bcc6113e3565b610be85760405162461bcd60e51b81526004016107ed90612dbe565b610bf28282611617565b5050565b336001600160a01b038416811480610c3357506001600160a01b0380851660009081526003602090815260408083209385168352929052205460ff165b610c735760405162461bcd60e51b81526020600482015260116024820152702ab730b8383937bb32b21031b0b63632b960791b60448201526064016107ed565b8151835114610cb65760405162461bcd60e51b815260206004820152600f60248201526e098cadccee8d040dad2e6dac2e8c6d608b1b60448201526064016107ed565b60005b8351811015610d8657828181518110610cd457610cd4612de6565b602002602001015160026000876001600160a01b03166001600160a01b031681526020019081526020016000206000868481518110610d1557610d15612de6565b60200260200101518152602001908152602001600020541015610d745760405162461bcd60e51b8152602060048201526017602482015276139bdd08195b9bdd59da081d1bdad95b9cc81bdddb9959604a1b60448201526064016107ed565b610d7f600182612e95565b9050610cb9565b50610d928484846116bd565b50505050565b610da06113e3565b610dbc5760405162461bcd60e51b81526004016107ed90612dbe565b6107ff81611872565b6001805461070790612d55565b610dda6113e3565b610df65760405162461bcd60e51b81526004016107ed90612dbe565b6103e283838361194e565b81610e0b8161147d565b6103e28383611a18565b6060816001600160401b03811115610e2f57610e2f6126c1565b604051908082528060200260200182016040528015610e6257816020015b6060815260200190600190039081610e4d5790505b50905060005b82811015610f0257610ed230858584818110610e8657610e86612de6565b9050602002810190610e989190612ea8565b8080601f016020809104026020016040519081016040528093929190818152602001838380828437600092019190915250611ac792505050565b828281518110610ee457610ee4612de6565b60200260200101819052508080610efa90612e7c565b915050610e68565b5092915050565b6000610f136113e3565b610f2f5760405162461bcd60e51b81526004016107ed90612dbe565b85600003610f675760405162461bcd60e51b81526020600482015260056024820152640c08185b5d60da1b60448201526064016107ed565b6000600b549050610faf818888888080601f016020809104026020016040519081016040528093929190818152602001838380828437600092019190915250611af392505050565b600b919091559150807f2a0365091ef1a40953c670dce28177e37520648a6fdc91506bffac0ab045570d6001610fe58a84612e95565b610fef9190612eee565b88888888604051611004959493929190612f2a565b60405180910390a25095945050505050565b6005805461070790612d55565b846001600160a01b038116331461103d5761103d3361147d565b6109cc8686868686611b57565b336001600160a01b03841681148061108757506001600160a01b0380851660009081526003602090815260408083209385168352929052205460ff165b6110c75760405162461bcd60e51b81526020600482015260116024820152702ab730b8383937bb32b21031b0b63632b960791b60448201526064016107ed565b6001600160a01b03841660009081526002602090815260408083208684529091529020548211156111345760405162461bcd60e51b8152602060048201526017602482015276139bdd08195b9bdd59da081d1bdad95b9cc81bdddb9959604a1b60448201526064016107ed565b610d92848484611bdf565b6060600061114c60095490565b90506000600980548060200260200160405190810160405280929190818152602001828054801561119c57602002820191906000526020600020905b815481526020019060010190808311611188575b5050505050905060005b828110156112a0578181815181106111c0576111c0612de6565b602002602001015185101561128e57600a60008383815181106111e5576111e5612de6565b60200260200101518152602001908152602001600020805461120690612d55565b80601f016020809104026020016040519081016040528092919081815260200182805461123290612d55565b801561127f5780601f106112545761010080835404028352916020019161127f565b820191906000526020600020905b81548152906001019060200180831161126257829003601f168201915b50505050509350505050919050565b611299600182612e95565b90506111a6565b5060405162461bcd60e51b815260206004820152600f60248201526e125b9d985b1a59081d1bdad95b9259608a1b60448201526064016107ed565b6060816000036113025750506040805180820190915260018152600360fc1b602082015290565b8160005b811561132c578061131681612e7c565b91506113259050600a83612e3f565b9150611306565b6000816001600160401b03811115611346576113466126c1565b6040519080825280601f01601f191660200182016040528015611370576020820181803683370190505b5090505b84156113db57611385600183612eee565b9150611392600a86612f63565b61139d906030612e95565b60f81b8183815181106113b2576113b2612de6565b60200101906001600160f81b031916908160001a9053506113d4600a86612e3f565b9450611374565b949350505050565b60006113f76006546001600160a01b031690565b6001600160a01b0316336001600160a01b031614905090565b600680546001600160a01b038381166001600160a01b0319831681179093556040519116919082907f8292fce18fa69edf4db7b94ea2e58241df0ae57f97e0a6c9b29067028bf92d7690600090a35050565b6103e283838360405180602001604052806000815250611d04565b600c5460ff16156107ff576daaeb6d7670e522a718067333cd4e3b156107ff57604051633185c44d60e21b81523060048201526001600160a01b03821660248201526daaeb6d7670e522a718067333cd4e9063c617113490604401602060405180830381865afa1580156114f5573d6000803e3d6000fd5b505050506040513d601f19601f820116820180604052508101906115199190612f77565b6107ff57604051633b79c77360e21b81526001600160a01b03821660048201526024016107ed565b6001600160a01b03851633148061157b57506001600160a01b038516600090815260036020908152604080832033845290915290205460ff165b6115bc5760405162461bcd60e51b81526020600482015260126024820152710853d5d3915497d3d497d054141493d5915160721b60448201526064016107ed565b6115c98585858585611ddd565b5050505050565b600c805460ff19168215159081179091556040519081527f38475885990d8dfe9ca01f0ef160a1b5514426eab9ddbc953a3353410ba780969060200160405180910390a150565b61271081111561165b5760405162461bcd60e51b815260206004820152600f60248201526e45786365656473206d61782062707360881b60448201526064016107ed565b600780546001600160a01b0384166001600160b01b03199091168117600160a01b61ffff851602179091556040518281527f90d7ec04bcb8978719414f82e52e4cb651db41d0e6f8cea6118c2191e6183adb9060200160405180910390a25050565b6001600160a01b0383166117045760405162461bcd60e51b815260206004820152600e60248201526d232927a6afad22a927afa0a2222960911b60448201526064016107ed565b80518251146117255760405162461bcd60e51b81526004016107ed90612e53565b600033905061174881856000868660405180602001604052806000815250611f90565b60005b835181101561181357600084828151811061176857611768612de6565b60200260200101519050600084838151811061178657611786612de6565b6020908102919091018101516001600160a01b03891660009081526002835260408082208683529093529190912054909150818110156117d85760405162461bcd60e51b81526004016107ed90612f94565b6001600160a01b038816600090815260026020908152604080832095835294905292909220910390558061180b81612e7c565b91505061174b565b5060006001600160a01b0316846001600160a01b0316826001600160a01b03167f4a39dc06d4c0dbc64b70af90fd698a233a518aa5d07e595d983b8c0526c8f7fb8686604051611864929190612fbe565b60405180910390a450505050565b60006005805461188190612d55565b80601f01602080910402602001604051908101604052809291908181526020018280546118ad90612d55565b80156118fa5780601f106118cf576101008083540402835291602001916118fa565b820191906000526020600020905b8154815290600101906020018083116118dd57829003601f168201915b5050505050905081600590816119109190613032565b507fc9c7c3fe08b88b4df9d4d47ef47d2c43d55c025a0ba88ca442580ed9e7348a1681836040516119429291906130f1565b60405180910390a15050565b6127108111156119925760405162461bcd60e51b815260206004820152600f60248201526e45786365656473206d61782062707360881b60448201526064016107ed565b6040805180820182526001600160a01b038481168083526020808401868152600089815260088352869020945185546001600160a01b031916941693909317845591516001909301929092559151838152909185917f7365cf4122f072a3365c20d54eff9b38d73c096c28e1892ec8f5b0e403a0f12d91015b60405180910390a3505050565b336001600160a01b0383168103611a625760405162461bcd60e51b815260206004820152600e60248201526d20a8282927ab24a723afa9a2a62360911b60448201526064016107ed565b6001600160a01b03818116600081815260036020908152604080832094881680845294825291829020805460ff191687151590811790915591519182527f17307eab39ab6107e8899845ad3d59bd9653f200f220920489ca2b5937696c319101611a0b565b6060611aec83836040518060600160405280602781526020016132b2602791396120a5565b9392505050565b600080611b008486612e95565b60098054600181019091557f6e1540171b6c0c960b71a7020d9f60077f6af931a8bbf590da0223dacf75c7af018190556000818152600a60205260409020909250829150611b4e8482613032565b50935093915050565b6001600160a01b038516331480611b9157506001600160a01b038516600090815260036020908152604080832033845290915290205460ff165b611bd25760405162461bcd60e51b81526020600482015260126024820152710853d5d3915497d3d497d054141493d5915160721b60448201526064016107ed565b6115c98585858585612182565b6001600160a01b038316611c265760405162461bcd60e51b815260206004820152600e60248201526d232927a6afad22a927afa0a2222960911b60448201526064016107ed565b33611c5581856000611c37876122a8565b611c40876122a8565b60405180602001604052806000815250611f90565b6001600160a01b038416600090815260026020908152604080832086845290915290205482811015611c995760405162461bcd60e51b81526004016107ed90612f94565b6001600160a01b03858116600081815260026020908152604080832089845282528083208887039055805189815291820188905291938616917fc3d58168c5ae7397731d063d5bbf3d657854427343f4c083240f7aacaa2d0f62910160405180910390a45050505050565b6001600160a01b038416611d2a5760405162461bcd60e51b81526004016107ed90613116565b33611d4a81600087611d3b886122a8565b611d44886122a8565b87611f90565b6001600160a01b038516600090815260026020908152604080832087845290915281208054859290611d7d908490612e95565b909155505060408051858152602081018590526001600160a01b0380881692600092918516917fc3d58168c5ae7397731d063d5bbf3d657854427343f4c083240f7aacaa2d0f62910160405180910390a46115c9816000878787876122f3565b8151835114611dfe5760405162461bcd60e51b81526004016107ed90612e53565b6001600160a01b038416611e245760405162461bcd60e51b81526004016107ed90613116565b33611e33818787878787611f90565b60005b8451811015611f2a576000858281518110611e5357611e53612de6565b602002602001015190506000858381518110611e7157611e71612de6565b6020908102919091018101516001600160a01b038b166000908152600283526040808220868352909352919091205490915081811015611ec35760405162461bcd60e51b81526004016107ed90612f94565b6001600160a01b03808b16600090815260026020818152604080842088855282528084208787039055938d16835290815282822086835290529081208054849290611f0f908490612e95565b9250508190555050505080611f2390612e7c565b9050611e36565b50846001600160a01b0316866001600160a01b0316826001600160a01b03167f4a39dc06d4c0dbc64b70af90fd698a233a518aa5d07e595d983b8c0526c8f7fb8787604051611f7a929190612fbe565b60405180910390a46109cc818787878787612446565b6001600160a01b0385166120175760005b835181101561201557828181518110611fbc57611fbc612de6565b6020026020010151600e6000868481518110611fda57611fda612de6565b602002602001015181526020019081526020016000206000828254611fff9190612e95565b9091555061200e905081612e7c565b9050611fa1565b505b6001600160a01b0384166109cc5760005b835181101561209c5782818151811061204357612043612de6565b6020026020010151600e600086848151811061206157612061612de6565b6020026020010151815260200190815260200160002060008282546120869190612eee565b90915550612095905081612e7c565b9050612028565b50505050505050565b60606001600160a01b0384163b61210d5760405162461bcd60e51b815260206004820152602660248201527f416464726573733a2064656c65676174652063616c6c20746f206e6f6e2d636f6044820152651b9d1c9858dd60d21b60648201526084016107ed565b600080856001600160a01b031685604051612128919061313c565b600060405180830381855af49150503d8060008114612163576040519150601f19603f3d011682016040523d82523d6000602084013e612168565b606091505b5091509150612178828286612523565b9695505050505050565b6001600160a01b0384166121a85760405162461bcd60e51b81526004016107ed90613116565b336121b8818787611d3b886122a8565b6001600160a01b0386166000908152600260209081526040808320878452909152902054838110156121fc5760405162461bcd60e51b81526004016107ed90612f94565b6001600160a01b0380881660009081526002602081815260408084208a855282528084208987039055938a16835290815282822088835290529081208054869290612248908490612e95565b909155505060408051868152602081018690526001600160a01b03808916928a821692918616917fc3d58168c5ae7397731d063d5bbf3d657854427343f4c083240f7aacaa2d0f62910160405180910390a461209c8288888888886122f3565b604080516001808252818301909252606091600091906020808301908036833701905050905082816000815181106122e2576122e2612de6565b602090810291909101015292915050565b6001600160a01b0384163b156109cc5760405163f23a6e6160e01b81526001600160a01b0385169063f23a6e61906123379089908990889088908890600401613158565b6020604051808303816000875af1925050508015612372575060408051601f3d908101601f1916820190925261236f9181019061319d565b60015b6123f45761237e6131ba565b806308c379a0036123b757506123926131d6565b8061239d57506123b9565b8060405162461bcd60e51b81526004016107ed9190612625565b505b60405162461bcd60e51b815260206004820152601060248201526f10a2a92198989a9aa922a1a2a4ab22a960811b60448201526064016107ed565b6001600160e01b0319811663f23a6e6160e01b1461209c5760405162461bcd60e51b815260206004820152600f60248201526e1513d2d15394d7d491529150d51151608a1b60448201526064016107ed565b6001600160a01b0384163b156109cc5760405163bc197c8160e01b81526001600160a01b0385169063bc197c819061248a908990899088908890889060040161325f565b6020604051808303816000875af19250505080156124c5575060408051601f3d908101601f191682019092526124c29181019061319d565b60015b6124d15761237e6131ba565b6001600160e01b0319811663bc197c8160e01b1461209c5760405162461bcd60e51b815260206004820152600f60248201526e1513d2d15394d7d491529150d51151608a1b60448201526064016107ed565b60608315612532575081611aec565b8251156125425782518084602001fd5b8160405162461bcd60e51b81526004016107ed9190612625565b80356001600160a01b038116811461257357600080fd5b919050565b6000806040838503121561258b57600080fd5b6125948361255c565b946020939093013593505050565b6001600160e01b0319811681146107ff57600080fd5b6000602082840312156125ca57600080fd5b8135611aec816125a2565b60005b838110156125f05781810151838201526020016125d8565b50506000910152565b600081518084526126118160208601602086016125d5565b601f01601f19169290920160200192915050565b602081526000611aec60208301846125f9565b60006020828403121561264a57600080fd5b5035919050565b60006020828403121561266357600080fd5b611aec8261255c565b6000806040838503121561267f57600080fd5b50508035926020909101359150565b6000806000606084860312156126a357600080fd5b6126ac8461255c565b95602085013595506040909401359392505050565b634e487b7160e01b600052604160045260246000fd5b601f8201601f191681016001600160401b03811182821017156126fc576126fc6126c1565b6040525050565b60006001600160401b0382111561271c5761271c6126c1565b5060051b60200190565b600082601f83011261273757600080fd5b8135602061274482612703565b60405161275182826126d7565b83815260059390931b850182019282810191508684111561277157600080fd5b8286015b8481101561278c5780358352918301918301612775565b509695505050505050565b60006001600160401b038311156127b0576127b06126c1565b6040516127c7601f8501601f1916602001826126d7565b8091508381528484840111156127dc57600080fd5b83836020830137600060208583010152509392505050565b600082601f83011261280557600080fd5b611aec83833560208501612797565b600080600080600060a0868803121561282c57600080fd5b6128358661255c565b94506128436020870161255c565b935060408601356001600160401b038082111561285f57600080fd5b61286b89838a01612726565b9450606088013591508082111561288157600080fd5b61288d89838a01612726565b935060808801359150808211156128a357600080fd5b506128b0888289016127f4565b9150509295509295909350565b80151581146107ff57600080fd5b6000602082840312156128dd57600080fd5b8135611aec816128bd565b600080604083850312156128fb57600080fd5b82356001600160401b038082111561291257600080fd5b818501915085601f83011261292657600080fd5b8135602061293382612703565b60405161294082826126d7565b83815260059390931b850182019282810191508984111561296057600080fd5b948201945b83861015612985576129768661255c565b82529482019490820190612965565b9650508601359250508082111561299b57600080fd5b506129a885828601612726565b9150509250929050565b600081518084526020808501945080840160005b838110156129e2578151875295820195908201906001016129c6565b509495945050505050565b602081526000611aec60208301846129b2565b600080600060608486031215612a1557600080fd5b612a1e8461255c565b925060208401356001600160401b0380821115612a3a57600080fd5b612a4687838801612726565b93506040860135915080821115612a5c57600080fd5b50612a6986828701612726565b9150509250925092565b600060208284031215612a8557600080fd5b81356001600160401b03811115612a9b57600080fd5b8201601f81018413612aac57600080fd5b6113db84823560208401612797565b600080600060608486031215612ad057600080fd5b83359250612ae06020850161255c565b9150604084013590509250925092565b60008060408385031215612b0357600080fd5b612b0c8361255c565b91506020830135612b1c816128bd565b809150509250929050565b60008060208385031215612b3a57600080fd5b82356001600160401b0380821115612b5157600080fd5b818501915085601f830112612b6557600080fd5b813581811115612b7457600080fd5b8660208260051b8501011115612b8957600080fd5b60209290920196919550909350505050565b6000602080830181845280855180835260408601915060408160051b870101925083870160005b82811015612bf057603f19888603018452612bde8583516125f9565b94509285019290850190600101612bc2565b5092979650505050505050565b60008083601f840112612c0f57600080fd5b5081356001600160401b03811115612c2657600080fd5b602083019150836020828501011115612c3e57600080fd5b9250929050565b600080600080600060608688031215612c5d57600080fd5b8535945060208601356001600160401b0380821115612c7b57600080fd5b612c8789838a01612bfd565b90965094506040880135915080821115612ca057600080fd5b50612cad88828901612bfd565b969995985093965092949392505050565b60008060408385031215612cd157600080fd5b612cda8361255c565b9150612ce86020840161255c565b90509250929050565b600080600080600060a08688031215612d0957600080fd5b612d128661255c565b9450612d206020870161255c565b9350604086013592506060860135915060808601356001600160401b03811115612d4957600080fd5b6128b0888289016127f4565b600181811c90821680612d6957607f821691505b602082108103612d8957634e487b7160e01b600052602260045260246000fd5b50919050565b60008351612da18184602088016125d5565b835190830190612db58183602088016125d5565b01949350505050565b6020808252600e908201526d139bdd08185d5d1a1bdc9a5e995960921b604082015260600190565b634e487b7160e01b600052603260045260246000fd5b634e487b7160e01b600052601160045260246000fd5b80820281158282048414176106f4576106f4612dfc565b634e487b7160e01b600052601260045260246000fd5b600082612e4e57612e4e612e29565b500490565b6020808252600f908201526e0988a9c8ea890be9a92a69a82a8869608b1b604082015260600190565b600060018201612e8e57612e8e612dfc565b5060010190565b808201808211156106f4576106f4612dfc565b6000808335601e19843603018112612ebf57600080fd5b8301803591506001600160401b03821115612ed957600080fd5b602001915036819003821315612c3e57600080fd5b818103818111156106f4576106f4612dfc565b81835281816020850137506000828201602090810191909152601f909101601f19169091010190565b858152606060208201526000612f44606083018688612f01565b8281036040840152612f57818587612f01565b98975050505050505050565b600082612f7257612f72612e29565b500690565b600060208284031215612f8957600080fd5b8151611aec816128bd565b60208082526010908201526f125394d551919250d251539517d0905360821b604082015260600190565b604081526000612fd160408301856129b2565b8281036020840152612fe381856129b2565b95945050505050565b601f8211156103e257600081815260208120601f850160051c810160208610156130135750805b601f850160051c820191505b818110156109cc5782815560010161301f565b81516001600160401b0381111561304b5761304b6126c1565b61305f816130598454612d55565b84612fec565b602080601f831160018114613094576000841561307c5750858301515b600019600386901b1c1916600185901b1785556109cc565b600085815260208120601f198616915b828110156130c3578886015182559484019460019091019084016130a4565b50858210156130e15787850151600019600388901b60f8161c191681555b5050505050600190811b01905550565b60408152600061310460408301856125f9565b8281036020840152612fe381856125f9565b6020808252600c908201526b2a27afad22a927afa0a2222960a11b604082015260600190565b6000825161314e8184602087016125d5565b9190910192915050565b6001600160a01b03868116825285166020820152604081018490526060810183905260a060808201819052600090613192908301846125f9565b979650505050505050565b6000602082840312156131af57600080fd5b8151611aec816125a2565b600060033d11156131d35760046000803e5060005160e01c5b90565b600060443d10156131e45790565b6040516003193d81016004833e81513d6001600160401b03816024840111818411171561321357505050505090565b828501915081518181111561322b5750505050505090565b843d87010160208285010111156132455750505050505090565b613254602082860101876126d7565b509095945050505050565b6001600160a01b0386811682528516602082015260a06040820181905260009061328b908301866129b2565b828103606084015261329d81866129b2565b90508281036080840152612f5781856125f956fe416464726573733a206c6f772d6c6576656c2064656c65676174652063616c6c206661696c6564a26469706673582212205c0dc0cb1a4bbf4ae13ecbbe658abcbc4aac9bf98c0c03a1e1b9ee32d38cf6ac64736f6c63430008130033",
    "linkReferences": {}
  },
  "methodIdentifiers": {
    "OPERATOR_FILTER_REGISTRY()": "41f43434",
    "balanceOf(address,uint256)": "00fdd58e",
    "balanceOfBatch(address[],uint256[])": "4e1273f4",
    "burn(address,uint256,uint256)": "f5298aca",
    "burnBatch(address,uint256[],uint256[])": "6b20c454",
    "claim(address,uint256,uint256)": "2bc43fd9",
    "contractURI()": "e8a3d485",
    "getBaseURICount()": "63b45e2d",
    "getBatchIdAtIndex(uint256)": "2419f51b",
    "getDefaultRoyaltyInfo()": "b24f2d39",
    "getRoyaltyInfoForToken(uint256)": "4cc157df",
    "isApprovedForAll(address,address)": "e985e9c5",
    "lazyMint(uint256,string,bytes)": "d37c353b",
    "multicall(bytes[])": "ac9650d8",
    "name()": "06fdde03",
    "nextTokenIdToMint()": "3b1475a7",
    "operatorRestriction()": "504c6e01",
    "owner()": "8da5cb5b",
    "royaltyInfo(uint256,uint256)": "2a55205a",
    "safeBatchTransferFrom(address,address,uint256[],uint256[],bytes)": "2eb2c2d6",
    "safeTransferFrom(address,address,uint256,uint256,bytes)": "f242432a",
    "setApprovalForAll(address,bool)": "a22cb465",
    "setContractURI(string)": "938e3d7b",
    "setDefaultRoyaltyInfo(address,uint256)": "600dd5ea",
    "setOperatorRestriction(bool)": "32f0cd64",
    "setOwner(address)": "13af4035",
    "setRoyaltyInfoForToken(uint256,address,uint256)": "9bcf7a15",
    "supportsInterface(bytes4)": "01ffc9a7",
    "symbol()": "95d89b41",
    "totalSupply(uint256)": "bd85b039",
    "uri(uint256)": "0e89341c",
    "verifyClaim(address,uint256,uint256)": "4bbb1abf"
  },
  "id": 17
}