{
  "abi": [
    {
      "inputs": [
        {
          "internalType": "string",
          "name": "_name",
          "type": "string"
        },
        {
          "internalType": "string",
          "name": "_symbol",
          "type": "string"
        }
      ],
      "stateMutability": "nonpayable",
      "type": "constructor"
    },
    {
      "inputs": [
        {
          "internalType": "address",
          "name": "operator",
          "type": "address"
        }
      ],
      "name": "OperatorNotAllowed",
      "type": "error"
    },
    {
      "anonymous": false,
      "inputs": [
        {
          "indexed": true,
          "internalType": "address",
          "name": "_owner",
          "type": "address"
        },
        {
          "indexed": true,
          "internalType": "address",
          "name": "_operator",
          "type": "address"
        },
        {
          "indexed": false,
          "internalType": "bool",
          "name": "_approved",
          "type": "bool"
        }
      ],
      "name": "ApprovalForAll",
      "type": "event"
    },
    {
      "anonymous": false,
      "inputs": [
        {
          "indexed": false,
          "internalType": "string",
          "name": "prevURI",
          "type": "string"
        },
        {
          "indexed": false,
          "internalType": "string",
          "name": "newURI",
          "type": "string"
        }
      ],
      "name": "ContractURIUpdated",
      "type": "event"
    },
    {
      "anonymous": false,
      "inputs": [
        {
          "indexed": true,
          "internalType": "address",
          "name": "newRoyaltyRecipient",
          "type": "address"
        },
        {
          "indexed": false,
          "internalType": "uint256",
          "name": "newRoyaltyBps",
          "type": "uint256"
        }
      ],
      "name": "DefaultRoyalty",
      "type": "event"
    },
    {
      "anonymous": false,
      "inputs": [
        {
          "indexed": false,
          "internalType": "bool",
          "name": "restriction",
          "type": "bool"
        }
      ],
      "name": "OperatorRestriction",
      "type": "event"
    },
    {
      "anonymous": false,
      "inputs": [
        {
          "indexed": true,
          "internalType": "address",
          "name": "prevOwner",
          "type": "address"
        },
        {
          "indexed": true,
          "internalType": "address",
          "name": "newOwner",
          "type": "address"
        }
      ],
      "name": "OwnerUpdated",
      "type": "event"
    },
    {
      "anonymous": false,
      "inputs": [
        {
          "indexed": true,
          "internalType": "uint256",
          "name": "tokenId",
          "type": "uint256"
        },
        {
          "indexed": true,
          "internalType": "address",
          "name": "royaltyRecipient",
          "type": "address"
        },
        {
          "indexed": false,
          "internalType": "uint256",
          "name": "royaltyBps",
          "type": "uint256"
        }
      ],
      "name": "RoyaltyForToken",
      "type": "event"
    },
    {
      "anonymous": false,
      "inputs": [
        {
          "indexed": true,
          "internalType": "address",
          "name": "claimer",
          "type": "address"
        },
        {
          "indexed": true,
          "internalType": "address",
          "name": "receiver",
          "type": "address"
        },
        {
          "indexed": true,
          "internalType": "uint256",
          "name": "tokenId",
          "type": "uint256"
        },
        {
          "indexed": false,
          "internalType": "uint256",
          "name": "quantityClaimed",
          "type": "uint256"
        }
      ],
      "name": "TokensClaimed",
      "type": "event"
    },
    {
      "anonymous": false,
      "inputs": [
        {
          "indexed": true,
          "internalType": "uint256",
          "name": "startTokenId",
          "type": "uint256"
        },
        {
          "indexed": false,
          "internalType": "uint256",
          "name": "endTokenId",
          "type": "uint256"
        },
        {
          "indexed": false,
          "internalType": "string",
          "name": "baseURI",
          "type": "string"
        },
        {
          "indexed": false,
          "internalType": "bytes",
          "name": "encryptedBaseURI",
          "type": "bytes"
        }
      ],
      "name": "TokensLazyMinted",
      "type": "event"
    },
    {
      "anonymous": false,
      "inputs": [
        {
          "indexed": true,
          "internalType": "address",
          "name": "_operator",
          "type": "address"
        },
        {
          "indexed": true,
          "internalType": "address",
          "name": "_from",
          "type": "address"
        },
        {
          "indexed": true,
          "internalType": "address",
          "name": "_to",
          "type": "address"
        },
        {
          "indexed": false,
          "internalType": "uint256[]",
          "name": "_ids",
          "type": "uint256[]"
        },
        {
          "indexed": false,
          "internalType": "uint256[]",
          "name": "_values",
          "type": "uint256[]"
        }
      ],
      "name": "TransferBatch",
      "type": "event"
    },
    {
      "anonymous": false,
      "inputs": [
        {
          "indexed": true,
          "internalType": "address",
          "name": "_operator",
          "type": "address"
        },
        {
          "indexed": true,
          "internalType": "address",
          "name": "_from",
          "type": "address"
        },
        {
          "indexed": true,
          "internalType": "address",
          "name": "_to",
          "type": "address"
        },
        {
          "indexed": false,
          "internalType": "uint256",
          "name": "_id",
          "type": "uint256"
        },
        {
          "indexed": false,
          "internalType": "uint256",
          "name": "_value",
          "type": "uint256"
        }
      ],
      "name": "TransferSingle",
      "type": "event"
    },
    {
      "anonymous": false,
      "inputs": [
        {
          "indexed": false,
          "internalType": "string",
          "name": "_value",
          "type": "string"
        },
        {
          "indexed": true,
          "internalType": "uint256",
          "name": "_id",
          "type": "uint256"
        }
      ],
      "name": "URI",
      "type": "event"
    },
    {
      "inputs": [],
      "name": "OPERATOR_FILTER_REGISTRY",
      "outputs": [
        {
          "internalType": "contract IOperatorFilterRegistry",
          "name": "",
          "type": "address"
        }
      ],
      "stateMutability": "view",
      "type": "function"
    },
    {
      "inputs": [
        {
          "internalType": "address",
          "name": "",
          "type": "address"
        },
        {
          "internalType": "uint256",
          "name": "",
          "type": "uint256"
        }
      ],
      "name": "balanceOf",
      "outputs": [
        {
          "internalType": "uint256",
          "name": "",
          "type": "uint256"
        }
      ],
      "stateMutability": "view",
      "type": "function"
    },
    {
      "inputs": [
        {
          "internalType": "address[]",
          "name": "accounts",
          "type": "address[]"
        },
        {
          "internalType": "uint256[]",
          "name": "ids",
          "type": "uint256[]"
        }
      ],
      "name": "balanceOfBatch",
      "outputs": [
        {
          "internalType": "uint256[]",
          "name": "",
          "type": "uint256[]"
        }
      ],
      "stateMutability": "view",
      "type": "function"
    },
    {
      "inputs": [
        {
          "internalType": "address",
          "name": "_owner",
          "type": "address"
        },
        {
          "internalType": "uint256",
          "name": "_tokenId",
          "type": "uint256"
        },
        {
          "internalType": "uint256",
          "name": "_amount",
          "type": "uint256"
        }
      ],
      "name": "burn",
      "outputs": [],
      "stateMutability": "nonpayable",
      "type": "function"
    },
    {
      "inputs": [
        {
          "internalType": "address",
          "name": "_owner",
          "type": "address"
        },
        {
          "internalType": "uint256[]",
          "name": "_tokenIds",
          "type": "uint256[]"
        },
        {
          "internalType": "uint256[]",
          "name": "_amounts",
          "type": "uint256[]"
        }
      ],
      "name": "burnBatch",
      "outputs": [],
      "stateMutability": "nonpayable",
      "type": "function"
    },
    {
      "inputs": [
        {
          "internalType": "address",
          "name": "_receiver",
          "type": "address"
        },
        {
          "internalType": "uint256",
          "name": "_tokenId",
          "type": "uint256"
        },
        {
          "internalType": "uint256",
          "name": "_quantity",
          "type": "uint256"
        }
      ],
      "name": "claim",
      "outputs": [],
      "stateMutability": "payable",
      "type": "function"
    },
    {
      "inputs": [],
      "name": "contractURI",
      "outputs": [
        {
          "internalType": "string",
          "name": "",
          "type": "string"
        }
      ],
      "stateMutability": "view",
      "type": "function"
    },
    {
      "inputs": [],
      "name": "evolve",
      "outputs": [],
      "stateMutability": "nonpayable",
      "type": "function"
    },
    {
      "inputs": [],
      "name": "getBaseURICount",
      "outputs": [
        {
          "internalType": "uint256",
          "name": "",
          "type": "uint256"
        }
      ],
      "stateMutability": "view",
      "type": "function"
    },
    {
      "inputs": [
        {
          "internalType": "uint256",
          "name": "_index",
          "type": "uint256"
        }
      ],
      "name": "getBatchIdAtIndex",
      "outputs": [
        {
          "internalType": "uint256",
          "name": "",
          "type": "uint256"
        }
      ],
      "stateMutability": "view",
      "type": "function"
    },
    {
      "inputs": [],
      "name": "getDefaultRoyaltyInfo",
      "outputs": [
        {
          "internalType": "address",
          "name": "",
          "type": "address"
        },
        {
          "internalType": "uint16",
          "name": "",
          "type": "uint16"
        }
      ],
      "stateMutability": "view",
      "type": "function"
    },
    {
      "inputs": [
        {
          "internalType": "uint256",
          "name": "_tokenId",
          "type": "uint256"
        }
      ],
      "name": "getRoyaltyInfoForToken",
      "outputs": [
        {
          "internalType": "address",
          "name": "",
          "type": "address"
        },
        {
          "internalType": "uint16",
          "name": "",
          "type": "uint16"
        }
      ],
      "stateMutability": "view",
      "type": "function"
    },
    {
      "inputs": [
        {
          "internalType": "address",
          "name": "",
          "type": "address"
        },
        {
          "internalType": "address",
          "name": "",
          "type": "address"
        }
      ],
      "name": "isApprovedForAll",
      "outputs": [
        {
          "internalType": "bool",
          "name": "",
          "type": "bool"
        }
      ],
      "stateMutability": "view",
      "type": "function"
    },
    {
      "inputs": [
        {
          "internalType": "uint256",
          "name": "_amount",
          "type": "uint256"
        },
        {
          "internalType": "string",
          "name": "_baseURIForTokens",
          "type": "string"
        },
        {
          "internalType": "bytes",
          "name": "_data",
          "type": "bytes"
        }
      ],
      "name": "lazyMint",
      "outputs": [
        {
          "internalType": "uint256",
          "name": "batchId",
          "type": "uint256"
        }
      ],
      "stateMutability": "nonpayable",
      "type": "function"
    },
    {
      "inputs": [
        {
          "internalType": "bytes[]",
          "name": "data",
          "type": "bytes[]"
        }
      ],
      "name": "multicall",
      "outputs": [
        {
          "internalType": "bytes[]",
          "name": "results",
          "type": "bytes[]"
        }
      ],
      "stateMutability": "nonpayable",
      "type": "function"
    },
    {
      "inputs": [],
      "name": "name",
      "outputs": [
        {
          "internalType": "string",
          "name": "",
          "type": "string"
        }
      ],
      "stateMutability": "view",
      "type": "function"
    },
    {
      "inputs": [],
      "name": "nextTokenIdToMint",
      "outputs": [
        {
          "internalType": "uint256",
          "name": "",
          "type": "uint256"
        }
      ],
      "stateMutability": "view",
      "type": "function"
    },
    {
      "inputs": [],
      "name": "operatorRestriction",
      "outputs": [
        {
          "internalType": "bool",
          "name": "",
          "type": "bool"
        }
      ],
      "stateMutability": "view",
      "type": "function"
    },
    {
      "inputs": [],
      "name": "owner",
      "outputs": [
        {
          "internalType": "address",
          "name": "",
          "type": "address"
        }
      ],
      "stateMutability": "view",
      "type": "function"
    },
    {
      "inputs": [
        {
          "internalType": "uint256",
          "name": "tokenId",
          "type": "uint256"
        },
        {
          "internalType": "uint256",
          "name": "salePrice",
          "type": "uint256"
        }
      ],
      "name": "royaltyInfo",
      "outputs": [
        {
          "internalType": "address",
          "name": "receiver",
          "type": "address"
        },
        {
          "internalType": "uint256",
          "name": "royaltyAmount",
          "type": "uint256"
        }
      ],
      "stateMutability": "view",
      "type": "function"
    },
    {
      "inputs": [
        {
          "internalType": "address",
          "name": "from",
          "type": "address"
        },
        {
          "internalType": "address",
          "name": "to",
          "type": "address"
        },
        {
          "internalType": "uint256[]",
          "name": "ids",
          "type": "uint256[]"
        },
        {
          "internalType": "uint256[]",
          "name": "amounts",
          "type": "uint256[]"
        },
        {
          "internalType": "bytes",
          "name": "data",
          "type": "bytes"
        }
      ],
      "name": "safeBatchTransferFrom",
      "outputs": [],
      "stateMutability": "nonpayable",
      "type": "function"
    },
    {
      "inputs": [
        {
          "internalType": "address",
          "name": "from",
          "type": "address"
        },
        {
          "internalType": "address",
          "name": "to",
          "type": "address"
        },
        {
          "internalType": "uint256",
          "name": "id",
          "type": "uint256"
        },
        {
          "internalType": "uint256",
          "name": "amount",
          "type": "uint256"
        },
        {
          "internalType": "bytes",
          "name": "data",
          "type": "bytes"
        }
      ],
      "name": "safeTransferFrom",
      "outputs": [],
      "stateMutability": "nonpayable",
      "type": "function"
    },
    {
      "inputs": [
        {
          "internalType": "address",
          "name": "operator",
          "type": "address"
        },
        {
          "internalType": "bool",
          "name": "approved",
          "type": "bool"
        }
      ],
      "name": "setApprovalForAll",
      "outputs": [],
      "stateMutability": "nonpayable",
      "type": "function"
    },
    {
      "inputs": [
        {
          "internalType": "string",
          "name": "_uri",
          "type": "string"
        }
      ],
      "name": "setContractURI",
      "outputs": [],
      "stateMutability": "nonpayable",
      "type": "function"
    },
    {
      "inputs": [
        {
          "internalType": "address",
          "name": "_royaltyRecipient",
          "type": "address"
        },
        {
          "internalType": "uint256",
          "name": "_royaltyBps",
          "type": "uint256"
        }
      ],
      "name": "setDefaultRoyaltyInfo",
      "outputs": [],
      "stateMutability": "nonpayable",
      "type": "function"
    },
    {
      "inputs": [
        {
          "internalType": "bool",
          "name": "_restriction",
          "type": "bool"
        }
      ],
      "name": "setOperatorRestriction",
      "outputs": [],
      "stateMutability": "nonpayable",
      "type": "function"
    },
    {
      "inputs": [
        {
          "internalType": "address",
          "name": "_newOwner",
          "type": "address"
        }
      ],
      "name": "setOwner",
      "outputs": [],
      "stateMutability": "nonpayable",
      "type": "function"
    },
    {
      "inputs": [
        {
          "internalType": "uint256",
          "name": "_tokenId",
          "type": "uint256"
        },
        {
          "internalType": "address",
          "name": "_recipient",
          "type": "address"
        },
        {
          "internalType": "uint256",
          "name": "_bps",
          "type": "uint256"
        }
      ],
      "name": "setRoyaltyInfoForToken",
      "outputs": [],
      "stateMutability": "nonpayable",
      "type": "function"
    },
    {
      "inputs": [
        {
          "internalType": "bytes4",
          "name": "interfaceId",
          "type": "bytes4"
        }
      ],
      "name": "supportsInterface",
      "outputs": [
        {
          "internalType": "bool",
          "name": "",
          "type": "bool"
        }
      ],
      "stateMutability": "view",
      "type": "function"
    },
    {
      "inputs": [],
      "name": "symbol",
      "outputs": [
        {
          "internalType": "string",
          "name": "",
          "type": "string"
        }
      ],
      "stateMutability": "view",
      "type": "function"
    },
    {
      "inputs": [
        {
          "internalType": "uint256",
          "name": "",
          "type": "uint256"
        }
      ],
      "name": "totalSupply",
      "outputs": [
        {
          "internalType": "uint256",
          "name": "",
          "type": "uint256"
        }
      ],
      "stateMutability": "view",
      "type": "function"
    },
    {
      "inputs": [
        {
          "internalType": "uint256",
          "name": "_tokenId",
          "type": "uint256"
        }
      ],
      "name": "uri",
      "outputs": [
        {
          "internalType": "string",
          "name": "",
          "type": "string"
        }
      ],
      "stateMutability": "view",
      "type": "function"
    },
    {
      "inputs": [
        {
          "internalType": "address",
          "name": "_claimer",
          "type": "address"
        },
        {
          "internalType": "uint256",
          "name": "_tokenId",
          "type": "uint256"
        },
        {
          "internalType": "uint256",
          "name": "_quantity",
          "type": "uint256"
        }
      ],
      "name": "verifyClaim",
      "outputs": [],
      "stateMutability": "view",
      "type": "function"
    }
  ],
  "bytecode": {
    "object": "0x60806040523480156200001157600080fd5b50604051620039e6380380620039e68339810160408190526200003491620003fe565b8181336000733cc6cdda760b79bafa08df41ecfa224f810dceb660018585846200005f8382620004f7565b5060016200006e8282620004f7565b5050506daaeb6d7670e522a718067333cd4e3b15620001b65780156200010457604051633e9f1edf60e11b81523060048201526001600160a01b03831660248201526daaeb6d7670e522a718067333cd4e90637d3e3dbe906044015b600060405180830381600087803b158015620000e557600080fd5b505af1158015620000fa573d6000803e3d6000fd5b50505050620001b6565b6001600160a01b03821615620001555760405163a0af290360e01b81523060048201526001600160a01b03831660248201526daaeb6d7670e522a718067333cd4e9063a0af290390604401620000ca565b604051632210724360e11b81523060048201526daaeb6d7670e522a718067333cd4e90634420e48690602401600060405180830381600087803b1580156200019c57600080fd5b505af1158015620001b1573d6000803e3d6000fd5b505050505b50506001600d55620001c833620001f5565b620001dd826001600160801b03831662000247565b620001e96001620002f2565b505050505050620005c3565b600680546001600160a01b038381166001600160a01b0319831681179093556040519116919082907f8292fce18fa69edf4db7b94ea2e58241df0ae57f97e0a6c9b29067028bf92d7690600090a35050565b612710811115620002905760405162461bcd60e51b815260206004820152600f60248201526e45786365656473206d61782062707360881b604482015260640160405180910390fd5b600780546001600160a01b0384166001600160b01b03199091168117600160a01b61ffff851602179091556040518281527f90d7ec04bcb8978719414f82e52e4cb651db41d0e6f8cea6118c2191e6183adb9060200160405180910390a25050565b600c805460ff19168215159081179091556040519081527f38475885990d8dfe9ca01f0ef160a1b5514426eab9ddbc953a3353410ba780969060200160405180910390a150565b634e487b7160e01b600052604160045260246000fd5b600082601f8301126200036157600080fd5b81516001600160401b03808211156200037e576200037e62000339565b604051601f8301601f19908116603f01168101908282118183101715620003a957620003a962000339565b81604052838152602092508683858801011115620003c657600080fd5b600091505b83821015620003ea5785820183015181830184015290820190620003cb565b600093810190920192909252949350505050565b600080604083850312156200041257600080fd5b82516001600160401b03808211156200042a57600080fd5b62000438868387016200034f565b935060208501519150808211156200044f57600080fd5b506200045e858286016200034f565b9150509250929050565b600181811c908216806200047d57607f821691505b6020821081036200049e57634e487b7160e01b600052602260045260246000fd5b50919050565b601f821115620004f257600081815260208120601f850160051c81016020861015620004cd5750805b601f850160051c820191505b81811015620004ee57828155600101620004d9565b5050505b505050565b81516001600160401b0381111562000513576200051362000339565b6200052b8162000524845462000468565b84620004a4565b602080601f8311600181146200056357600084156200054a5750858301515b600019600386901b1c1916600185901b178555620004ee565b600085815260208120601f198616915b82811015620005945788860151825594840194600190910190840162000573565b5085821015620005b35787850151600019600388901b60f8161c191681555b5050505050600190811b01905550565b61341380620005d36000396000f3fe6080604052600436106101ed5760003560e01c8063600dd5ea1161010d578063a22cb465116100a0578063d37c353b1161006f578063d37c353b146105fd578063e8a3d4851461061d578063e985e9c514610632578063f242432a1461066d578063f5298aca1461068d57600080fd5b8063a22cb46514610558578063ac9650d814610578578063b24f2d39146105a5578063bd85b039146105d057600080fd5b80638da5cb5b116100dc5780638da5cb5b146104e5578063938e3d7b1461050357806395d89b41146105235780639bcf7a151461053857600080fd5b8063600dd5ea1461047b57806363b45e2d1461049b5780636b20c454146104b0578063734b8147146104d057600080fd5b80632eb2c2d6116101855780634bbb1abf116101545780634bbb1abf146103d25780634cc157df146103f25780634e1273f414610434578063504c6e011461046157600080fd5b80632eb2c2d61461034357806332f0cd64146103635780633b1475a71461038357806341f434341461039857600080fd5b806313af4035116101c157806313af4035146102af5780632419f51b146102d15780632a55205a146102f15780632bc43fd91461033057600080fd5b8062fdd58e146101f257806301ffc9a71461023d57806306fdde031461026d5780630e89341c1461028f575b600080fd5b3480156101fe57600080fd5b5061022a61020d36600461267d565b600260209081526000928352604080842090915290825290205481565b6040519081526020015b60405180910390f35b34801561024957600080fd5b5061025d6102583660046126bd565b6106ad565b6040519015158152602001610234565b34801561027957600080fd5b5061028261071a565b604051610234919061272a565b34801561029b57600080fd5b506102826102aa36600461273d565b6107a8565b3480156102bb57600080fd5b506102cf6102ca366004612756565b6107e9565b005b3480156102dd57600080fd5b5061022a6102ec36600461273d565b610822565b3480156102fd57600080fd5b5061031161030c366004612771565b610890565b604080516001600160a01b039093168352602083019190915201610234565b6102cf61033e366004612793565b6108cd565b34801561034f57600080fd5b506102cf61035e366004612919565b6109d0565b34801561036f57600080fd5b506102cf61037e3660046129d0565b6109ff565b34801561038f57600080fd5b50600b5461022a565b3480156103a457600080fd5b506103ba6daaeb6d7670e522a718067333cd4e81565b6040516001600160a01b039091168152602001610234565b3480156103de57600080fd5b506102cf6103ed366004612793565b610a70565b3480156103fe57600080fd5b5061041261040d36600461273d565b610b1f565b604080516001600160a01b03909316835261ffff909116602083015201610234565b34801561044057600080fd5b5061045461044f3660046129ed565b610b8a565b6040516102349190612af2565b34801561046d57600080fd5b50600c5461025d9060ff1681565b34801561048757600080fd5b506102cf61049636600461267d565b610c9e565b3480156104a757600080fd5b5060095461022a565b3480156104bc57600080fd5b506102cf6104cb366004612b05565b610cd0565b3480156104dc57600080fd5b506102cf610e72565b3480156104f157600080fd5b506006546001600160a01b03166103ba565b34801561050f57600080fd5b506102cf61051e366004612b78565b610e9d565b34801561052f57600080fd5b50610282610eca565b34801561054457600080fd5b506102cf610553366004612bc0565b610ed7565b34801561056457600080fd5b506102cf610573366004612bf5565b610f06565b34801561058457600080fd5b50610598610593366004612c2c565b610f1a565b6040516102349190612ca0565b3480156105b157600080fd5b506007546001600160a01b03811690600160a01b900461ffff16610412565b3480156105dc57600080fd5b5061022a6105eb36600461273d565b600e6020526000908152604090205481565b34801561060957600080fd5b5061022a610618366004612d4a565b61100e565b34801561062957600080fd5b5061028261111b565b34801561063e57600080fd5b5061025d61064d366004612dc3565b600360209081526000928352604080842090915290825290205460ff1681565b34801561067957600080fd5b506102cf610688366004612df6565b611128565b34801561069957600080fd5b506102cf6106a8366004612793565b61114f565b60006301ffc9a760e01b6001600160e01b0319831614806106de5750636cdb3d1360e11b6001600160e01b03198316145b806106f957506303a24d0760e21b6001600160e01b03198316145b8061071457506001600160e01b0319821663152a902d60e11b145b92915050565b6000805461072790612e5a565b80601f016020809104026020016040519081016040528092919081815260200182805461075390612e5a565b80156107a05780601f10610775576101008083540402835291602001916107a0565b820191906000526020600020905b81548152906001019060200180831161078357829003601f168201915b505050505081565b606060006107b583611244565b9050806107c1846113e0565b6040516020016107d2929190612e94565b604051602081830303815290604052915050919050565b6107f16114e8565b6108165760405162461bcd60e51b815260040161080d90612ec3565b60405180910390fd5b61081f81611515565b50565b600061082d60095490565b821061086b5760405162461bcd60e51b815260206004820152600d60248201526c092dcecc2d8d2c840d2dcc8caf609b1b604482015260640161080d565b6009828154811061087e5761087e612eeb565b90600052602060002001549050919050565b60008060008061089f86610b1f565b90945084925061ffff1690506127106108b88287612f17565b6108c29190612f44565b925050509250929050565b6002600d540361091f5760405162461bcd60e51b815260206004820152601f60248201527f5265656e7472616e637947756172643a207265656e7472616e742063616c6c00604482015260640161080d565b6002600d55600b5482106109625760405162461bcd60e51b815260206004820152600a6024820152691a5b9d985b1a59081a5960b21b604482015260640161080d565b61096d338383610a70565b610978838383611567565b81836001600160a01b0316336001600160a01b03167fff097c7d8b1957a4ff09ef1361b5fb54dcede3941ba836d0beb9d10bec725de6846040516109be91815260200190565b60405180910390a450506001600d5550565b846001600160a01b03811633146109ea576109ea33611582565b6109f78686868686611646565b505050505050565b610a076114e8565b610a675760405162461bcd60e51b815260206004820152602b60248201527f4e6f7420617574686f72697a656420746f20736574206f70657261746f72207260448201526a32b9ba3934b1ba34b7b71760a91b606482015260840161080d565b61081f816116d5565b8115610abe5760405162461bcd60e51b815260206004820181905260248201527f4f6e6c792050696b6163687520637574652061726520636c61696d61626c6521604482015260640161080d565b80600114610b1a5760405162461bcd60e51b815260206004820152602360248201527f4f6e6c7920312050696b6163687520637574652063616e20626520636c61696d60448201526265642160e81b606482015260840161080d565b505050565b6000818152600860209081526040808320815180830190925280546001600160a01b031680835260019091015492820192909252829115610b665780516020820151610b80565b6007546001600160a01b03811690600160a01b900461ffff165b9250925050915091565b60608151835114610bad5760405162461bcd60e51b815260040161080d90612f58565b600083516001600160401b03811115610bc857610bc86127c6565b604051908082528060200260200182016040528015610bf1578160200160208202803683370190505b50905060005b8451811015610c965760026000868381518110610c1657610c16612eeb565b60200260200101516001600160a01b03166001600160a01b031681526020019081526020016000206000858381518110610c5257610c52612eeb565b6020026020010151815260200190815260200160002054828281518110610c7b57610c7b612eeb565b6020908102919091010152610c8f81612f81565b9050610bf7565b509392505050565b610ca66114e8565b610cc25760405162461bcd60e51b815260040161080d90612ec3565b610ccc828261171c565b5050565b336001600160a01b038416811480610d0d57506001600160a01b0380851660009081526003602090815260408083209385168352929052205460ff165b610d4d5760405162461bcd60e51b81526020600482015260116024820152702ab730b8383937bb32b21031b0b63632b960791b604482015260640161080d565b8151835114610d905760405162461bcd60e51b815260206004820152600f60248201526e098cadccee8d040dad2e6dac2e8c6d608b1b604482015260640161080d565b60005b8351811015610e6057828181518110610dae57610dae612eeb565b602002602001015160026000876001600160a01b03166001600160a01b031681526020019081526020016000206000868481518110610def57610def612eeb565b60200260200101518152602001908152602001600020541015610e4e5760405162461bcd60e51b8152602060048201526017602482015276139bdd08195b9bdd59da081d1bdad95b9cc81bdddb9959604a1b604482015260640161080d565b610e59600182612f9a565b9050610d93565b50610e6c8484846117c2565b50505050565b610e7f3360006002611977565b610e9b3360018060405180602001604052806000815250611a9c565b565b610ea56114e8565b610ec15760405162461bcd60e51b815260040161080d90612ec3565b61081f81611b75565b6001805461072790612e5a565b610edf6114e8565b610efb5760405162461bcd60e51b815260040161080d90612ec3565b610b1a838383611c51565b81610f1081611582565b610b1a8383611d1b565b6060816001600160401b03811115610f3457610f346127c6565b604051908082528060200260200182016040528015610f6757816020015b6060815260200190600190039081610f525790505b50905060005b8281101561100757610fd730858584818110610f8b57610f8b612eeb565b9050602002810190610f9d9190612fad565b8080601f016020809104026020016040519081016040528093929190818152602001838380828437600092019190915250611dca92505050565b828281518110610fe957610fe9612eeb565b60200260200101819052508080610fff90612f81565b915050610f6d565b5092915050565b60006110186114e8565b6110345760405162461bcd60e51b815260040161080d90612ec3565b8560000361106c5760405162461bcd60e51b81526020600482015260056024820152640c08185b5d60da1b604482015260640161080d565b6000600b5490506110b4818888888080601f016020809104026020016040519081016040528093929190818152602001838380828437600092019190915250611df692505050565b600b919091559150807f2a0365091ef1a40953c670dce28177e37520648a6fdc91506bffac0ab045570d60016110ea8a84612f9a565b6110f49190612ff3565b8888888860405161110995949392919061302f565b60405180910390a25095945050505050565b6005805461072790612e5a565b846001600160a01b03811633146111425761114233611582565b6109f78686868686611e5a565b336001600160a01b03841681148061118c57506001600160a01b0380851660009081526003602090815260408083209385168352929052205460ff165b6111cc5760405162461bcd60e51b81526020600482015260116024820152702ab730b8383937bb32b21031b0b63632b960791b604482015260640161080d565b6001600160a01b03841660009081526002602090815260408083208684529091529020548211156112395760405162461bcd60e51b8152602060048201526017602482015276139bdd08195b9bdd59da081d1bdad95b9cc81bdddb9959604a1b604482015260640161080d565b610e6c848484611977565b6060600061125160095490565b9050600060098054806020026020016040519081016040528092919081815260200182805480156112a157602002820191906000526020600020905b81548152602001906001019080831161128d575b5050505050905060005b828110156113a5578181815181106112c5576112c5612eeb565b602002602001015185101561139357600a60008383815181106112ea576112ea612eeb565b60200260200101518152602001908152602001600020805461130b90612e5a565b80601f016020809104026020016040519081016040528092919081815260200182805461133790612e5a565b80156113845780601f1061135957610100808354040283529160200191611384565b820191906000526020600020905b81548152906001019060200180831161136757829003601f168201915b50505050509350505050919050565b61139e600182612f9a565b90506112ab565b5060405162461bcd60e51b815260206004820152600f60248201526e125b9d985b1a59081d1bdad95b9259608a1b604482015260640161080d565b6060816000036114075750506040805180820190915260018152600360fc1b602082015290565b8160005b8115611431578061141b81612f81565b915061142a9050600a83612f44565b915061140b565b6000816001600160401b0381111561144b5761144b6127c6565b6040519080825280601f01601f191660200182016040528015611475576020820181803683370190505b5090505b84156114e05761148a600183612ff3565b9150611497600a86613068565b6114a2906030612f9a565b60f81b8183815181106114b7576114b7612eeb565b60200101906001600160f81b031916908160001a9053506114d9600a86612f44565b9450611479565b949350505050565b60006114fc6006546001600160a01b031690565b6001600160a01b0316336001600160a01b031614905090565b600680546001600160a01b038381166001600160a01b0319831681179093556040519116919082907f8292fce18fa69edf4db7b94ea2e58241df0ae57f97e0a6c9b29067028bf92d7690600090a35050565b610b1a83838360405180602001604052806000815250611a9c565b600c5460ff161561081f576daaeb6d7670e522a718067333cd4e3b1561081f57604051633185c44d60e21b81523060048201526001600160a01b03821660248201526daaeb6d7670e522a718067333cd4e9063c617113490604401602060405180830381865afa1580156115fa573d6000803e3d6000fd5b505050506040513d601f19601f8201168201806040525081019061161e919061307c565b61081f57604051633b79c77360e21b81526001600160a01b038216600482015260240161080d565b6001600160a01b03851633148061168057506001600160a01b038516600090815260036020908152604080832033845290915290205460ff165b6116c15760405162461bcd60e51b81526020600482015260126024820152710853d5d3915497d3d497d054141493d5915160721b604482015260640161080d565b6116ce8585858585611ee2565b5050505050565b600c805460ff19168215159081179091556040519081527f38475885990d8dfe9ca01f0ef160a1b5514426eab9ddbc953a3353410ba780969060200160405180910390a150565b6127108111156117605760405162461bcd60e51b815260206004820152600f60248201526e45786365656473206d61782062707360881b604482015260640161080d565b600780546001600160a01b0384166001600160b01b03199091168117600160a01b61ffff851602179091556040518281527f90d7ec04bcb8978719414f82e52e4cb651db41d0e6f8cea6118c2191e6183adb9060200160405180910390a25050565b6001600160a01b0383166118095760405162461bcd60e51b815260206004820152600e60248201526d232927a6afad22a927afa0a2222960911b604482015260640161080d565b805182511461182a5760405162461bcd60e51b815260040161080d90612f58565b600033905061184d81856000868660405180602001604052806000815250612095565b60005b835181101561191857600084828151811061186d5761186d612eeb565b60200260200101519050600084838151811061188b5761188b612eeb565b6020908102919091018101516001600160a01b03891660009081526002835260408082208683529093529190912054909150818110156118dd5760405162461bcd60e51b815260040161080d90613099565b6001600160a01b038816600090815260026020908152604080832095835294905292909220910390558061191081612f81565b915050611850565b5060006001600160a01b0316846001600160a01b0316826001600160a01b03167f4a39dc06d4c0dbc64b70af90fd698a233a518aa5d07e595d983b8c0526c8f7fb86866040516119699291906130c3565b60405180910390a450505050565b6001600160a01b0383166119be5760405162461bcd60e51b815260206004820152600e60248201526d232927a6afad22a927afa0a2222960911b604482015260640161080d565b336119ed818560006119cf876121aa565b6119d8876121aa565b60405180602001604052806000815250612095565b6001600160a01b038416600090815260026020908152604080832086845290915290205482811015611a315760405162461bcd60e51b815260040161080d90613099565b6001600160a01b03858116600081815260026020908152604080832089845282528083208887039055805189815291820188905291938616917fc3d58168c5ae7397731d063d5bbf3d657854427343f4c083240f7aacaa2d0f62910160405180910390a45050505050565b6001600160a01b038416611ac25760405162461bcd60e51b815260040161080d906130f1565b33611ae281600087611ad3886121aa565b611adc886121aa565b87612095565b6001600160a01b038516600090815260026020908152604080832087845290915281208054859290611b15908490612f9a565b909155505060408051858152602081018590526001600160a01b0380881692600092918516917fc3d58168c5ae7397731d063d5bbf3d657854427343f4c083240f7aacaa2d0f62910160405180910390a46116ce816000878787876121f5565b600060058054611b8490612e5a565b80601f0160208091040260200160405190810160405280929190818152602001828054611bb090612e5a565b8015611bfd5780601f10611bd257610100808354040283529160200191611bfd565b820191906000526020600020905b815481529060010190602001808311611be057829003601f168201915b505050505090508160059081611c13919061315d565b507fc9c7c3fe08b88b4df9d4d47ef47d2c43d55c025a0ba88ca442580ed9e7348a168183604051611c4592919061321c565b60405180910390a15050565b612710811115611c955760405162461bcd60e51b815260206004820152600f60248201526e45786365656473206d61782062707360881b604482015260640161080d565b6040805180820182526001600160a01b038481168083526020808401868152600089815260088352869020945185546001600160a01b031916941693909317845591516001909301929092559151838152909185917f7365cf4122f072a3365c20d54eff9b38d73c096c28e1892ec8f5b0e403a0f12d91015b60405180910390a3505050565b336001600160a01b0383168103611d655760405162461bcd60e51b815260206004820152600e60248201526d20a8282927ab24a723afa9a2a62360911b604482015260640161080d565b6001600160a01b03818116600081815260036020908152604080832094881680845294825291829020805460ff191687151590811790915591519182527f17307eab39ab6107e8899845ad3d59bd9653f200f220920489ca2b5937696c319101611d0e565b6060611def83836040518060600160405280602781526020016133b760279139612348565b9392505050565b600080611e038486612f9a565b60098054600181019091557f6e1540171b6c0c960b71a7020d9f60077f6af931a8bbf590da0223dacf75c7af018190556000818152600a60205260409020909250829150611e51848261315d565b50935093915050565b6001600160a01b038516331480611e9457506001600160a01b038516600090815260036020908152604080832033845290915290205460ff165b611ed55760405162461bcd60e51b81526020600482015260126024820152710853d5d3915497d3d497d054141493d5915160721b604482015260640161080d565b6116ce8585858585612425565b8151835114611f035760405162461bcd60e51b815260040161080d90612f58565b6001600160a01b038416611f295760405162461bcd60e51b815260040161080d906130f1565b33611f38818787878787612095565b60005b845181101561202f576000858281518110611f5857611f58612eeb565b602002602001015190506000858381518110611f7657611f76612eeb565b6020908102919091018101516001600160a01b038b166000908152600283526040808220868352909352919091205490915081811015611fc85760405162461bcd60e51b815260040161080d90613099565b6001600160a01b03808b16600090815260026020818152604080842088855282528084208787039055938d16835290815282822086835290529081208054849290612014908490612f9a565b925050819055505050508061202890612f81565b9050611f3b565b50846001600160a01b0316866001600160a01b0316826001600160a01b03167f4a39dc06d4c0dbc64b70af90fd698a233a518aa5d07e595d983b8c0526c8f7fb878760405161207f9291906130c3565b60405180910390a46109f781878787878761254b565b6001600160a01b03851661211c5760005b835181101561211a578281815181106120c1576120c1612eeb565b6020026020010151600e60008684815181106120df576120df612eeb565b6020026020010151815260200190815260200160002060008282546121049190612f9a565b90915550612113905081612f81565b90506120a6565b505b6001600160a01b0384166109f75760005b83518110156121a15782818151811061214857612148612eeb565b6020026020010151600e600086848151811061216657612166612eeb565b60200260200101518152602001908152602001600020600082825461218b9190612ff3565b9091555061219a905081612f81565b905061212d565b50505050505050565b604080516001808252818301909252606091600091906020808301908036833701905050905082816000815181106121e4576121e4612eeb565b602090810291909101015292915050565b6001600160a01b0384163b156109f75760405163f23a6e6160e01b81526001600160a01b0385169063f23a6e61906122399089908990889088908890600401613241565b6020604051808303816000875af1925050508015612274575060408051601f3d908101601f1916820190925261227191810190613286565b60015b6122f6576122806132a3565b806308c379a0036122b957506122946132bf565b8061229f57506122bb565b8060405162461bcd60e51b815260040161080d919061272a565b505b60405162461bcd60e51b815260206004820152601060248201526f10a2a92198989a9aa922a1a2a4ab22a960811b604482015260640161080d565b6001600160e01b0319811663f23a6e6160e01b146121a15760405162461bcd60e51b815260206004820152600f60248201526e1513d2d15394d7d491529150d51151608a1b604482015260640161080d565b60606001600160a01b0384163b6123b05760405162461bcd60e51b815260206004820152602660248201527f416464726573733a2064656c65676174652063616c6c20746f206e6f6e2d636f6044820152651b9d1c9858dd60d21b606482015260840161080d565b600080856001600160a01b0316856040516123cb9190613348565b600060405180830381855af49150503d8060008114612406576040519150601f19603f3d011682016040523d82523d6000602084013e61240b565b606091505b509150915061241b828286612628565b9695505050505050565b6001600160a01b03841661244b5760405162461bcd60e51b815260040161080d906130f1565b3361245b818787611ad3886121aa565b6001600160a01b03861660009081526002602090815260408083208784529091529020548381101561249f5760405162461bcd60e51b815260040161080d90613099565b6001600160a01b0380881660009081526002602081815260408084208a855282528084208987039055938a168352908152828220888352905290812080548692906124eb908490612f9a565b909155505060408051868152602081018690526001600160a01b03808916928a821692918616917fc3d58168c5ae7397731d063d5bbf3d657854427343f4c083240f7aacaa2d0f62910160405180910390a46121a18288888888886121f5565b6001600160a01b0384163b156109f75760405163bc197c8160e01b81526001600160a01b0385169063bc197c819061258f9089908990889088908890600401613364565b6020604051808303816000875af19250505080156125ca575060408051601f3d908101601f191682019092526125c791810190613286565b60015b6125d6576122806132a3565b6001600160e01b0319811663bc197c8160e01b146121a15760405162461bcd60e51b815260206004820152600f60248201526e1513d2d15394d7d491529150d51151608a1b604482015260640161080d565b60608315612637575081611def565b8251156126475782518084602001fd5b8160405162461bcd60e51b815260040161080d919061272a565b80356001600160a01b038116811461267857600080fd5b919050565b6000806040838503121561269057600080fd5b61269983612661565b946020939093013593505050565b6001600160e01b03198116811461081f57600080fd5b6000602082840312156126cf57600080fd5b8135611def816126a7565b60005b838110156126f55781810151838201526020016126dd565b50506000910152565b600081518084526127168160208601602086016126da565b601f01601f19169290920160200192915050565b602081526000611def60208301846126fe565b60006020828403121561274f57600080fd5b5035919050565b60006020828403121561276857600080fd5b611def82612661565b6000806040838503121561278457600080fd5b50508035926020909101359150565b6000806000606084860312156127a857600080fd5b6127b184612661565b95602085013595506040909401359392505050565b634e487b7160e01b600052604160045260246000fd5b601f8201601f191681016001600160401b0381118282101715612801576128016127c6565b6040525050565b60006001600160401b03821115612821576128216127c6565b5060051b60200190565b600082601f83011261283c57600080fd5b8135602061284982612808565b60405161285682826127dc565b83815260059390931b850182019282810191508684111561287657600080fd5b8286015b84811015612891578035835291830191830161287a565b509695505050505050565b60006001600160401b038311156128b5576128b56127c6565b6040516128cc601f8501601f1916602001826127dc565b8091508381528484840111156128e157600080fd5b83836020830137600060208583010152509392505050565b600082601f83011261290a57600080fd5b611def8383356020850161289c565b600080600080600060a0868803121561293157600080fd5b61293a86612661565b945061294860208701612661565b935060408601356001600160401b038082111561296457600080fd5b61297089838a0161282b565b9450606088013591508082111561298657600080fd5b61299289838a0161282b565b935060808801359150808211156129a857600080fd5b506129b5888289016128f9565b9150509295509295909350565b801515811461081f57600080fd5b6000602082840312156129e257600080fd5b8135611def816129c2565b60008060408385031215612a0057600080fd5b82356001600160401b0380821115612a1757600080fd5b818501915085601f830112612a2b57600080fd5b81356020612a3882612808565b604051612a4582826127dc565b83815260059390931b8501820192828101915089841115612a6557600080fd5b948201945b83861015612a8a57612a7b86612661565b82529482019490820190612a6a565b96505086013592505080821115612aa057600080fd5b50612aad8582860161282b565b9150509250929050565b600081518084526020808501945080840160005b83811015612ae757815187529582019590820190600101612acb565b509495945050505050565b602081526000611def6020830184612ab7565b600080600060608486031215612b1a57600080fd5b612b2384612661565b925060208401356001600160401b0380821115612b3f57600080fd5b612b4b8783880161282b565b93506040860135915080821115612b6157600080fd5b50612b6e8682870161282b565b9150509250925092565b600060208284031215612b8a57600080fd5b81356001600160401b03811115612ba057600080fd5b8201601f81018413612bb157600080fd5b6114e08482356020840161289c565b600080600060608486031215612bd557600080fd5b83359250612be560208501612661565b9150604084013590509250925092565b60008060408385031215612c0857600080fd5b612c1183612661565b91506020830135612c21816129c2565b809150509250929050565b60008060208385031215612c3f57600080fd5b82356001600160401b0380821115612c5657600080fd5b818501915085601f830112612c6a57600080fd5b813581811115612c7957600080fd5b8660208260051b8501011115612c8e57600080fd5b60209290920196919550909350505050565b6000602080830181845280855180835260408601915060408160051b870101925083870160005b82811015612cf557603f19888603018452612ce38583516126fe565b94509285019290850190600101612cc7565b5092979650505050505050565b60008083601f840112612d1457600080fd5b5081356001600160401b03811115612d2b57600080fd5b602083019150836020828501011115612d4357600080fd5b9250929050565b600080600080600060608688031215612d6257600080fd5b8535945060208601356001600160401b0380821115612d8057600080fd5b612d8c89838a01612d02565b90965094506040880135915080821115612da557600080fd5b50612db288828901612d02565b969995985093965092949392505050565b60008060408385031215612dd657600080fd5b612ddf83612661565b9150612ded60208401612661565b90509250929050565b600080600080600060a08688031215612e0e57600080fd5b612e1786612661565b9450612e2560208701612661565b9350604086013592506060860135915060808601356001600160401b03811115612e4e57600080fd5b6129b5888289016128f9565b600181811c90821680612e6e57607f821691505b602082108103612e8e57634e487b7160e01b600052602260045260246000fd5b50919050565b60008351612ea68184602088016126da565b835190830190612eba8183602088016126da565b01949350505050565b6020808252600e908201526d139bdd08185d5d1a1bdc9a5e995960921b604082015260600190565b634e487b7160e01b600052603260045260246000fd5b634e487b7160e01b600052601160045260246000fd5b808202811582820484141761071457610714612f01565b634e487b7160e01b600052601260045260246000fd5b600082612f5357612f53612f2e565b500490565b6020808252600f908201526e0988a9c8ea890be9a92a69a82a8869608b1b604082015260600190565b600060018201612f9357612f93612f01565b5060010190565b8082018082111561071457610714612f01565b6000808335601e19843603018112612fc457600080fd5b8301803591506001600160401b03821115612fde57600080fd5b602001915036819003821315612d4357600080fd5b8181038181111561071457610714612f01565b81835281816020850137506000828201602090810191909152601f909101601f19169091010190565b858152606060208201526000613049606083018688613006565b828103604084015261305c818587613006565b98975050505050505050565b60008261307757613077612f2e565b500690565b60006020828403121561308e57600080fd5b8151611def816129c2565b60208082526010908201526f125394d551919250d251539517d0905360821b604082015260600190565b6040815260006130d66040830185612ab7565b82810360208401526130e88185612ab7565b95945050505050565b6020808252600c908201526b2a27afad22a927afa0a2222960a11b604082015260600190565b601f821115610b1a57600081815260208120601f850160051c8101602086101561313e5750805b601f850160051c820191505b818110156109f75782815560010161314a565b81516001600160401b03811115613176576131766127c6565b61318a816131848454612e5a565b84613117565b602080601f8311600181146131bf57600084156131a75750858301515b600019600386901b1c1916600185901b1785556109f7565b600085815260208120601f198616915b828110156131ee578886015182559484019460019091019084016131cf565b508582101561320c5787850151600019600388901b60f8161c191681555b5050505050600190811b01905550565b60408152600061322f60408301856126fe565b82810360208401526130e881856126fe565b6001600160a01b03868116825285166020820152604081018490526060810183905260a06080820181905260009061327b908301846126fe565b979650505050505050565b60006020828403121561329857600080fd5b8151611def816126a7565b600060033d11156132bc5760046000803e5060005160e01c5b90565b600060443d10156132cd5790565b6040516003193d81016004833e81513d6001600160401b0381602484011181841117156132fc57505050505090565b82850191508151818111156133145750505050505090565b843d870101602082850101111561332e5750505050505090565b61333d602082860101876127dc565b509095945050505050565b6000825161335a8184602087016126da565b9190910192915050565b6001600160a01b0386811682528516602082015260a06040820181905260009061339090830186612ab7565b82810360608401526133a28186612ab7565b9050828103608084015261305c81856126fe56fe416464726573733a206c6f772d6c6576656c2064656c65676174652063616c6c206661696c6564a2646970667358221220bd8fac804e6aeb08f950a2c358b94965e223ee08591d90fa084ed498de8c0ccc64736f6c63430008130033",
    "linkReferences": {}
  },
  "methodIdentifiers": {
    "OPERATOR_FILTER_REGISTRY()": "41f43434",
    "balanceOf(address,uint256)": "00fdd58e",
    "balanceOfBatch(address[],uint256[])": "4e1273f4",
    "burn(address,uint256,uint256)": "f5298aca",
    "burnBatch(address,uint256[],uint256[])": "6b20c454",
    "claim(address,uint256,uint256)": "2bc43fd9",
    "contractURI()": "e8a3d485",
    "evolve()": "734b8147",
    "getBaseURICount()": "63b45e2d",
    "getBatchIdAtIndex(uint256)": "2419f51b",
    "getDefaultRoyaltyInfo()": "b24f2d39",
    "getRoyaltyInfoForToken(uint256)": "4cc157df",
    "isApprovedForAll(address,address)": "e985e9c5",
    "lazyMint(uint256,string,bytes)": "d37c353b",
    "multicall(bytes[])": "ac9650d8",
    "name()": "06fdde03",
    "nextTokenIdToMint()": "3b1475a7",
    "operatorRestriction()": "504c6e01",
    "owner()": "8da5cb5b",
    "royaltyInfo(uint256,uint256)": "2a55205a",
    "safeBatchTransferFrom(address,address,uint256[],uint256[],bytes)": "2eb2c2d6",
    "safeTransferFrom(address,address,uint256,uint256,bytes)": "f242432a",
    "setApprovalForAll(address,bool)": "a22cb465",
    "setContractURI(string)": "938e3d7b",
    "setDefaultRoyaltyInfo(address,uint256)": "600dd5ea",
    "setOperatorRestriction(bool)": "32f0cd64",
    "setOwner(address)": "13af4035",
    "setRoyaltyInfoForToken(uint256,address,uint256)": "9bcf7a15",
    "supportsInterface(bytes4)": "01ffc9a7",
    "symbol()": "95d89b41",
    "totalSupply(uint256)": "bd85b039",
    "uri(uint256)": "0e89341c",
    "verifyClaim(address,uint256,uint256)": "4bbb1abf"
  },
  "id": 44
}